{
	"myToken.sol": {
		"MyToken": {
			"abi": [
				{
					"inputs": [],
					"stateMutability": "nonpayable",
					"type": "constructor"
				},
				{
					"inputs": [
						{
							"internalType": "uint256",
							"name": "",
							"type": "uint256"
						}
					],
					"name": "addrList",
					"outputs": [
						{
							"internalType": "address",
							"name": "",
							"type": "address"
						}
					],
					"stateMutability": "view",
					"type": "function"
				},
				{
					"inputs": [
						{
							"internalType": "address",
							"name": "clientAddr",
							"type": "address"
						},
						{
							"internalType": "uint256",
							"name": "deposit",
							"type": "uint256"
						}
					],
					"name": "createWallet",
					"outputs": [],
					"stateMutability": "nonpayable",
					"type": "function"
				},
				{
					"inputs": [
						{
							"internalType": "address",
							"name": "clientAddr",
							"type": "address"
						},
						{
							"internalType": "uint256",
							"name": "deposit",
							"type": "uint256"
						}
					],
					"name": "depositWallet",
					"outputs": [],
					"stateMutability": "nonpayable",
					"type": "function"
				},
				{
					"inputs": [],
					"name": "getAddress",
					"outputs": [
						{
							"internalType": "address",
							"name": "",
							"type": "address"
						}
					],
					"stateMutability": "view",
					"type": "function"
				},
				{
					"inputs": [
						{
							"internalType": "address",
							"name": "clientAddr",
							"type": "address"
						}
					],
					"name": "getBalance",
					"outputs": [
						{
							"internalType": "uint256",
							"name": "",
							"type": "uint256"
						}
					],
					"stateMutability": "view",
					"type": "function"
				},
				{
					"inputs": [],
					"name": "getResult",
					"outputs": [
						{
							"internalType": "uint256",
							"name": "",
							"type": "uint256"
						}
					],
					"stateMutability": "view",
					"type": "function"
				},
				{
					"inputs": [
						{
							"internalType": "uint256",
							"name": "inputValue",
							"type": "uint256"
						}
					],
					"name": "minusResult",
					"outputs": [
						{
							"internalType": "uint256",
							"name": "",
							"type": "uint256"
						}
					],
					"stateMutability": "nonpayable",
					"type": "function"
				},
				{
					"inputs": [],
					"name": "start",
					"outputs": [],
					"stateMutability": "nonpayable",
					"type": "function"
				},
				{
					"inputs": [
						{
							"internalType": "uint256",
							"name": "sum",
							"type": "uint256"
						}
					],
					"name": "sumResult",
					"outputs": [
						{
							"internalType": "uint256",
							"name": "",
							"type": "uint256"
						}
					],
					"stateMutability": "nonpayable",
					"type": "function"
				},
				{
					"inputs": [
						{
							"internalType": "uint256",
							"name": "amt",
							"type": "uint256"
						}
					],
					"name": "transfer",
					"outputs": [],
					"stateMutability": "nonpayable",
					"type": "function"
				}
			],
			"devdoc": {
				"kind": "dev",
				"methods": {},
				"version": 1
			},
			"evm": {
				"assembly": "    /* \"myToken.sol\":57:1437  contract MyToken{... */\n  mstore(0x40, 0x80)\n    /* \"myToken.sol\":187:280  constructor(){... */\n  callvalue\n  dup1\n  iszero\n  tag_1\n  jumpi\n  0x00\n  dup1\n  revert\ntag_1:\n  pop\n    /* \"myToken.sol\":210:218  userAddr */\n  0x00\n  dup1\n  sload\n  swap1\n  0x0100\n  exp\n  swap1\n  pop\n  pop\n    /* \"myToken.sol\":271:273  10 */\n  0x0a\n    /* \"myToken.sol\":262:268  result */\n  0x01\n    /* \"myToken.sol\":262:273  result = 10 */\n  dup2\n  swap1\n  sstore\n  pop\n    /* \"myToken.sol\":57:1437  contract MyToken{... */\n  dataSize(sub_0)\n  dup1\n  dataOffset(sub_0)\n  0x00\n  codecopy\n  0x00\n  return\nstop\n\nsub_0: assembly {\n        /* \"myToken.sol\":57:1437  contract MyToken{... */\n      mstore(0x40, 0x80)\n      callvalue\n      dup1\n      iszero\n      tag_1\n      jumpi\n      0x00\n      dup1\n      revert\n    tag_1:\n      pop\n      jumpi(tag_2, lt(calldatasize, 0x04))\n      shr(0xe0, calldataload(0x00))\n      dup1\n      0xbe9a6555\n      gt\n      tag_13\n      jumpi\n      dup1\n      0xbe9a6555\n      eq\n      tag_8\n      jumpi\n      dup1\n      0xcd9d25ba\n      eq\n      tag_9\n      jumpi\n      dup1\n      0xde292789\n      eq\n      tag_10\n      jumpi\n      dup1\n      0xf247d217\n      eq\n      tag_11\n      jumpi\n      dup1\n      0xf8b2cb4f\n      eq\n      tag_12\n      jumpi\n      jump(tag_2)\n    tag_13:\n      dup1\n      0x12514bba\n      eq\n      tag_3\n      jumpi\n      dup1\n      0x38cc4831\n      eq\n      tag_4\n      jumpi\n      dup1\n      0x80402564\n      eq\n      tag_5\n      jumpi\n      dup1\n      0x8861e646\n      eq\n      tag_6\n      jumpi\n      dup1\n      0xae1659a1\n      eq\n      tag_7\n      jumpi\n    tag_2:\n      0x00\n      dup1\n      revert\n        /* \"myToken.sol\":1326:1434  function transfer(uint amt) public {... */\n    tag_3:\n      tag_14\n      0x04\n      dup1\n      calldatasize\n      sub\n      dup2\n      add\n      swap1\n      tag_15\n      swap2\n      swap1\n      tag_16\n      jump\t// in\n    tag_15:\n      tag_17\n      jump\t// in\n    tag_14:\n      stop\n        /* \"myToken.sol\":1156:1238  function getAddress() public view returns(address){... */\n    tag_4:\n      tag_18\n      tag_19\n      jump\t// in\n    tag_18:\n      mload(0x40)\n      tag_20\n      swap2\n      swap1\n      tag_21\n      jump\t// in\n    tag_20:\n      mload(0x40)\n      dup1\n      swap2\n      sub\n      swap1\n      return\n        /* \"myToken.sol\":118:143  address[] public addrList */\n    tag_5:\n      tag_22\n      0x04\n      dup1\n      calldatasize\n      sub\n      dup2\n      add\n      swap1\n      tag_23\n      swap2\n      swap1\n      tag_16\n      jump\t// in\n    tag_23:\n      tag_24\n      jump\t// in\n    tag_22:\n      mload(0x40)\n      tag_25\n      swap2\n      swap1\n      tag_21\n      jump\t// in\n    tag_25:\n      mload(0x40)\n      dup1\n      swap2\n      sub\n      swap1\n      return\n        /* \"myToken.sol\":375:626  function depositWallet(address clientAddr, uint deposit) public{... */\n    tag_6:\n      tag_26\n      0x04\n      dup1\n      calldatasize\n      sub\n      dup2\n      add\n      swap1\n      tag_27\n      swap2\n      swap1\n      tag_28\n      jump\t// in\n    tag_27:\n      tag_29\n      jump\t// in\n    tag_26:\n      stop\n        /* \"myToken.sol\":1032:1150  function minusResult(uint inputValue) public returns(uint){... */\n    tag_7:\n      tag_30\n      0x04\n      dup1\n      calldatasize\n      sub\n      dup2\n      add\n      swap1\n      tag_31\n      swap2\n      swap1\n      tag_16\n      jump\t// in\n    tag_31:\n      tag_32\n      jump\t// in\n    tag_30:\n      mload(0x40)\n      tag_33\n      swap2\n      swap1\n      tag_34\n      jump\t// in\n    tag_33:\n      mload(0x40)\n      dup1\n      swap2\n      sub\n      swap1\n      return\n        /* \"myToken.sol\":286:369  function start() public{... */\n    tag_8:\n      tag_35\n      tag_36\n      jump\t// in\n    tag_35:\n      stop\n        /* \"myToken.sol\":871:1026  function sumResult(uint sum) public returns(uint){... */\n    tag_9:\n      tag_37\n      0x04\n      dup1\n      calldatasize\n      sub\n      dup2\n      add\n      swap1\n      tag_38\n      swap2\n      swap1\n      tag_16\n      jump\t// in\n    tag_38:\n      tag_39\n      jump\t// in\n    tag_37:\n      mload(0x40)\n      tag_40\n      swap2\n      swap1\n      tag_34\n      jump\t// in\n    tag_40:\n      mload(0x40)\n      dup1\n      swap2\n      sub\n      swap1\n      return\n        /* \"myToken.sol\":1244:1320  function getResult() public view returns(uint){... */\n    tag_10:\n      tag_41\n      tag_42\n      jump\t// in\n    tag_41:\n      mload(0x40)\n      tag_43\n      swap2\n      swap1\n      tag_34\n      jump\t// in\n    tag_43:\n      mload(0x40)\n      dup1\n      swap2\n      sub\n      swap1\n      return\n        /* \"myToken.sol\":630:760  function createWallet(address clientAddr, uint deposit) public{... */\n    tag_11:\n      tag_44\n      0x04\n      dup1\n      calldatasize\n      sub\n      dup2\n      add\n      swap1\n      tag_45\n      swap2\n      swap1\n      tag_28\n      jump\t// in\n    tag_45:\n      tag_46\n      jump\t// in\n    tag_44:\n      stop\n        /* \"myToken.sol\":764:865  function getBalance(address clientAddr) public view returns(uint){... */\n    tag_12:\n      tag_47\n      0x04\n      dup1\n      calldatasize\n      sub\n      dup2\n      add\n      swap1\n      tag_48\n      swap2\n      swap1\n      tag_49\n      jump\t// in\n    tag_48:\n      tag_50\n      jump\t// in\n    tag_47:\n      mload(0x40)\n      tag_51\n      swap2\n      swap1\n      tag_34\n      jump\t// in\n    tag_51:\n      mload(0x40)\n      dup1\n      swap2\n      sub\n      swap1\n      return\n        /* \"myToken.sol\":1326:1434  function transfer(uint amt) public {... */\n    tag_17:\n        /* \"myToken.sol\":1385:1388  amt */\n      dup1\n        /* \"myToken.sol\":1375:1381  result */\n      sload(0x01)\n        /* \"myToken.sol\":1375:1388  result >= amt */\n      lt\n        /* \"myToken.sol\":1371:1428  if (result >= amt) {... */\n      tag_53\n      jumpi\n        /* \"myToken.sol\":1414:1417  amt */\n      dup1\n        /* \"myToken.sol\":1404:1410  result */\n      0x01\n      0x00\n        /* \"myToken.sol\":1404:1417  result -= amt */\n      dup3\n      dup3\n      sload\n      tag_54\n      swap2\n      swap1\n      tag_55\n      jump\t// in\n    tag_54:\n      swap3\n      pop\n      pop\n      dup2\n      swap1\n      sstore\n      pop\n        /* \"myToken.sol\":1371:1428  if (result >= amt) {... */\n    tag_53:\n        /* \"myToken.sol\":1326:1434  function transfer(uint amt) public {... */\n      pop\n      jump\t// out\n        /* \"myToken.sol\":1156:1238  function getAddress() public view returns(address){... */\n    tag_19:\n        /* \"myToken.sol\":1198:1205  address */\n      0x00\n        /* \"myToken.sol\":1223:1231  userAddr */\n      dup1\n      0x00\n      swap1\n      sload\n      swap1\n      0x0100\n      exp\n      swap1\n      div\n      0xffffffffffffffffffffffffffffffffffffffff\n      and\n        /* \"myToken.sol\":1216:1231  return userAddr */\n      swap1\n      pop\n        /* \"myToken.sol\":1156:1238  function getAddress() public view returns(address){... */\n      swap1\n      jump\t// out\n        /* \"myToken.sol\":118:143  address[] public addrList */\n    tag_24:\n      0x02\n      dup2\n      dup2\n      sload\n      dup2\n      lt\n      tag_57\n      jumpi\n      0x00\n      dup1\n      revert\n    tag_57:\n      swap1\n      0x00\n      mstore\n      keccak256(0x00, 0x20)\n      add\n      0x00\n      swap2\n      pop\n      sload\n      swap1\n      0x0100\n      exp\n      swap1\n      div\n      0xffffffffffffffffffffffffffffffffffffffff\n      and\n      dup2\n      jump\t// out\n        /* \"myToken.sol\":375:626  function depositWallet(address clientAddr, uint deposit) public{... */\n    tag_29:\n        /* \"myToken.sol\":448:454  uint i */\n      0x00\n        /* \"myToken.sol\":443:622  for (uint i = 0; i < addrList.length; i++){... */\n    tag_60:\n        /* \"myToken.sol\":464:472  addrList */\n      0x02\n        /* \"myToken.sol\":464:479  addrList.length */\n      dup1\n      sload\n      swap1\n      pop\n        /* \"myToken.sol\":460:461  i */\n      dup2\n        /* \"myToken.sol\":460:479  i < addrList.length */\n      lt\n        /* \"myToken.sol\":443:622  for (uint i = 0; i < addrList.length; i++){... */\n      iszero\n      tag_61\n      jumpi\n        /* \"myToken.sol\":510:520  clientAddr */\n      dup3\n        /* \"myToken.sol\":495:520  addrList[i] == clientAddr */\n      0xffffffffffffffffffffffffffffffffffffffff\n      and\n        /* \"myToken.sol\":495:503  addrList */\n      0x02\n        /* \"myToken.sol\":504:505  i */\n      dup3\n        /* \"myToken.sol\":495:506  addrList[i] */\n      dup2\n      sload\n      dup2\n      lt\n      tag_63\n      jumpi\n      tag_64\n      tag_65\n      jump\t// in\n    tag_64:\n    tag_63:\n      swap1\n      0x00\n      mstore\n      keccak256(0x00, 0x20)\n      add\n      0x00\n      swap1\n      sload\n      swap1\n      0x0100\n      exp\n      swap1\n      div\n      0xffffffffffffffffffffffffffffffffffffffff\n      and\n        /* \"myToken.sol\":495:520  addrList[i] == clientAddr */\n      0xffffffffffffffffffffffffffffffffffffffff\n      and\n      sub\n        /* \"myToken.sol\":491:617  if (addrList[i] == clientAddr){... */\n      tag_67\n      jumpi\n        /* \"myToken.sol\":550:557  deposit */\n      dup2\n        /* \"myToken.sol\":528:534  wallet */\n      0x03\n        /* \"myToken.sol\":528:546  wallet[clientAddr] */\n      0x00\n        /* \"myToken.sol\":535:545  clientAddr */\n      dup6\n        /* \"myToken.sol\":528:546  wallet[clientAddr] */\n      0xffffffffffffffffffffffffffffffffffffffff\n      and\n      0xffffffffffffffffffffffffffffffffffffffff\n      and\n      dup2\n      mstore\n      0x20\n      add\n      swap1\n      dup2\n      mstore\n      0x20\n      add\n      0x00\n      keccak256\n      0x00\n        /* \"myToken.sol\":528:557  wallet[clientAddr] += deposit */\n      dup3\n      dup3\n      sload\n      tag_68\n      swap2\n      swap1\n      tag_69\n      jump\t// in\n    tag_68:\n      swap3\n      pop\n      pop\n      dup2\n      swap1\n      sstore\n      pop\n        /* \"myToken.sol\":491:617  if (addrList[i] == clientAddr){... */\n      jump(tag_70)\n    tag_67:\n        /* \"myToken.sol\":577:610  createWallet(clientAddr, deposit) */\n      tag_71\n        /* \"myToken.sol\":590:600  clientAddr */\n      dup4\n        /* \"myToken.sol\":602:609  deposit */\n      dup4\n        /* \"myToken.sol\":577:589  createWallet */\n      tag_46\n        /* \"myToken.sol\":577:610  createWallet(clientAddr, deposit) */\n      jump\t// in\n    tag_71:\n        /* \"myToken.sol\":491:617  if (addrList[i] == clientAddr){... */\n    tag_70:\n        /* \"myToken.sol\":481:484  i++ */\n      dup1\n      dup1\n      tag_72\n      swap1\n      tag_73\n      jump\t// in\n    tag_72:\n      swap2\n      pop\n      pop\n        /* \"myToken.sol\":443:622  for (uint i = 0; i < addrList.length; i++){... */\n      jump(tag_60)\n    tag_61:\n      pop\n        /* \"myToken.sol\":375:626  function depositWallet(address clientAddr, uint deposit) public{... */\n      pop\n      pop\n      jump\t// out\n        /* \"myToken.sol\":1032:1150  function minusResult(uint inputValue) public returns(uint){... */\n    tag_32:\n        /* \"myToken.sol\":1085:1089  uint */\n      0x00\n        /* \"myToken.sol\":1110:1120  inputValue */\n      dup2\n        /* \"myToken.sol\":1100:1106  result */\n      0x01\n      0x00\n        /* \"myToken.sol\":1100:1120  result -= inputValue */\n      dup3\n      dup3\n      sload\n      tag_75\n      swap2\n      swap1\n      tag_55\n      jump\t// in\n    tag_75:\n      swap3\n      pop\n      pop\n      dup2\n      swap1\n      sstore\n      pop\n        /* \"myToken.sol\":1137:1143  result */\n      sload(0x01)\n        /* \"myToken.sol\":1130:1143  return result */\n      swap1\n      pop\n        /* \"myToken.sol\":1032:1150  function minusResult(uint inputValue) public returns(uint){... */\n      swap2\n      swap1\n      pop\n      jump\t// out\n        /* \"myToken.sol\":286:369  function start() public{... */\n    tag_36:\n        /* \"myToken.sol\":330:340  msg.sender */\n      caller\n        /* \"myToken.sol\":319:327  userAddr */\n      0x00\n      dup1\n        /* \"myToken.sol\":319:340  userAddr = msg.sender */\n      0x0100\n      exp\n      dup2\n      sload\n      dup2\n      0xffffffffffffffffffffffffffffffffffffffff\n      mul\n      not\n      and\n      swap1\n      dup4\n      0xffffffffffffffffffffffffffffffffffffffff\n      and\n      mul\n      or\n      swap1\n      sstore\n      pop\n        /* \"myToken.sol\":359:362  100 */\n      0x64\n        /* \"myToken.sol\":350:356  result */\n      0x01\n        /* \"myToken.sol\":350:362  result = 100 */\n      dup2\n      swap1\n      sstore\n      pop\n        /* \"myToken.sol\":286:369  function start() public{... */\n      jump\t// out\n        /* \"myToken.sol\":871:1026  function sumResult(uint sum) public returns(uint){... */\n    tag_39:\n        /* \"myToken.sol\":915:919  uint */\n      0x00\n        /* \"myToken.sol\":935:941  uint i */\n      dup1\n        /* \"myToken.sol\":944:945  1 */\n      0x01\n        /* \"myToken.sol\":935:945  uint i = 1 */\n      swap1\n      pop\n        /* \"myToken.sol\":930:997  for (uint i = 1; i <= sum; i++){... */\n    tag_78:\n        /* \"myToken.sol\":952:955  sum */\n      dup3\n        /* \"myToken.sol\":947:948  i */\n      dup2\n        /* \"myToken.sol\":947:955  i <= sum */\n      gt\n        /* \"myToken.sol\":930:997  for (uint i = 1; i <= sum; i++){... */\n      tag_79\n      jumpi\n        /* \"myToken.sol\":985:986  i */\n      dup1\n        /* \"myToken.sol\":975:981  result */\n      0x01\n      0x00\n        /* \"myToken.sol\":975:986  result += i */\n      dup3\n      dup3\n      sload\n      tag_81\n      swap2\n      swap1\n      tag_69\n      jump\t// in\n    tag_81:\n      swap3\n      pop\n      pop\n      dup2\n      swap1\n      sstore\n      pop\n        /* \"myToken.sol\":957:960  i++ */\n      dup1\n      dup1\n      tag_82\n      swap1\n      tag_73\n      jump\t// in\n    tag_82:\n      swap2\n      pop\n      pop\n        /* \"myToken.sol\":930:997  for (uint i = 1; i <= sum; i++){... */\n      jump(tag_78)\n    tag_79:\n      pop\n        /* \"myToken.sol\":1013:1019  result */\n      sload(0x01)\n        /* \"myToken.sol\":1006:1019  return result */\n      swap1\n      pop\n        /* \"myToken.sol\":871:1026  function sumResult(uint sum) public returns(uint){... */\n      swap2\n      swap1\n      pop\n      jump\t// out\n        /* \"myToken.sol\":1244:1320  function getResult() public view returns(uint){... */\n    tag_42:\n        /* \"myToken.sol\":1285:1289  uint */\n      0x00\n        /* \"myToken.sol\":1307:1313  result */\n      sload(0x01)\n        /* \"myToken.sol\":1300:1313  return result */\n      swap1\n      pop\n        /* \"myToken.sol\":1244:1320  function getResult() public view returns(uint){... */\n      swap1\n      jump\t// out\n        /* \"myToken.sol\":630:760  function createWallet(address clientAddr, uint deposit) public{... */\n    tag_46:\n        /* \"myToken.sol\":697:705  addrList */\n      0x02\n        /* \"myToken.sol\":711:721  clientAddr */\n      dup3\n        /* \"myToken.sol\":697:722  addrList.push(clientAddr) */\n      swap1\n      dup1\n      0x01\n      dup2\n      sload\n      add\n      dup1\n      dup3\n      sstore\n      dup1\n      swap2\n      pop\n      pop\n      0x01\n      swap1\n      sub\n      swap1\n      0x00\n      mstore\n      keccak256(0x00, 0x20)\n      add\n      0x00\n      swap1\n      swap2\n      swap1\n      swap2\n      swap1\n      swap2\n      0x0100\n      exp\n      dup2\n      sload\n      dup2\n      0xffffffffffffffffffffffffffffffffffffffff\n      mul\n      not\n      and\n      swap1\n      dup4\n      0xffffffffffffffffffffffffffffffffffffffff\n      and\n      mul\n      or\n      swap1\n      sstore\n      pop\n        /* \"myToken.sol\":748:755  deposit */\n      dup1\n        /* \"myToken.sol\":727:733  wallet */\n      0x03\n        /* \"myToken.sol\":727:745  wallet[clientAddr] */\n      0x00\n        /* \"myToken.sol\":734:744  clientAddr */\n      dup5\n        /* \"myToken.sol\":727:745  wallet[clientAddr] */\n      0xffffffffffffffffffffffffffffffffffffffff\n      and\n      0xffffffffffffffffffffffffffffffffffffffff\n      and\n      dup2\n      mstore\n      0x20\n      add\n      swap1\n      dup2\n      mstore\n      0x20\n      add\n      0x00\n      keccak256\n        /* \"myToken.sol\":727:755  wallet[clientAddr] = deposit */\n      dup2\n      swap1\n      sstore\n      pop\n        /* \"myToken.sol\":630:760  function createWallet(address clientAddr, uint deposit) public{... */\n      pop\n      pop\n      jump\t// out\n        /* \"myToken.sol\":764:865  function getBalance(address clientAddr) public view returns(uint){... */\n    tag_50:\n        /* \"myToken.sol\":824:828  uint */\n      0x00\n        /* \"myToken.sol\":842:848  wallet */\n      0x03\n        /* \"myToken.sol\":842:860  wallet[clientAddr] */\n      0x00\n        /* \"myToken.sol\":849:859  clientAddr */\n      dup4\n        /* \"myToken.sol\":842:860  wallet[clientAddr] */\n      0xffffffffffffffffffffffffffffffffffffffff\n      and\n      0xffffffffffffffffffffffffffffffffffffffff\n      and\n      dup2\n      mstore\n      0x20\n      add\n      swap1\n      dup2\n      mstore\n      0x20\n      add\n      0x00\n      keccak256\n      sload\n        /* \"myToken.sol\":835:860  return wallet[clientAddr] */\n      swap1\n      pop\n        /* \"myToken.sol\":764:865  function getBalance(address clientAddr) public view returns(uint){... */\n      swap2\n      swap1\n      pop\n      jump\t// out\n        /* \"#utility.yul\":88:205   */\n    tag_88:\n        /* \"#utility.yul\":197:198   */\n      0x00\n        /* \"#utility.yul\":194:195   */\n      dup1\n        /* \"#utility.yul\":187:199   */\n      revert\n        /* \"#utility.yul\":334:411   */\n    tag_90:\n        /* \"#utility.yul\":371:378   */\n      0x00\n        /* \"#utility.yul\":400:405   */\n      dup2\n        /* \"#utility.yul\":389:405   */\n      swap1\n      pop\n        /* \"#utility.yul\":334:411   */\n      swap2\n      swap1\n      pop\n      jump\t// out\n        /* \"#utility.yul\":417:539   */\n    tag_91:\n        /* \"#utility.yul\":490:514   */\n      tag_106\n        /* \"#utility.yul\":508:513   */\n      dup2\n        /* \"#utility.yul\":490:514   */\n      tag_90\n      jump\t// in\n    tag_106:\n        /* \"#utility.yul\":483:488   */\n      dup2\n        /* \"#utility.yul\":480:515   */\n      eq\n        /* \"#utility.yul\":470:533   */\n      tag_107\n      jumpi\n        /* \"#utility.yul\":529:530   */\n      0x00\n        /* \"#utility.yul\":526:527   */\n      dup1\n        /* \"#utility.yul\":519:531   */\n      revert\n        /* \"#utility.yul\":470:533   */\n    tag_107:\n        /* \"#utility.yul\":417:539   */\n      pop\n      jump\t// out\n        /* \"#utility.yul\":545:684   */\n    tag_92:\n        /* \"#utility.yul\":591:596   */\n      0x00\n        /* \"#utility.yul\":629:635   */\n      dup2\n        /* \"#utility.yul\":616:636   */\n      calldataload\n        /* \"#utility.yul\":607:636   */\n      swap1\n      pop\n        /* \"#utility.yul\":645:678   */\n      tag_109\n        /* \"#utility.yul\":672:677   */\n      dup2\n        /* \"#utility.yul\":645:678   */\n      tag_91\n      jump\t// in\n    tag_109:\n        /* \"#utility.yul\":545:684   */\n      swap3\n      swap2\n      pop\n      pop\n      jump\t// out\n        /* \"#utility.yul\":690:1019   */\n    tag_16:\n        /* \"#utility.yul\":749:755   */\n      0x00\n        /* \"#utility.yul\":798:800   */\n      0x20\n        /* \"#utility.yul\":786:795   */\n      dup3\n        /* \"#utility.yul\":777:784   */\n      dup5\n        /* \"#utility.yul\":773:796   */\n      sub\n        /* \"#utility.yul\":769:801   */\n      slt\n        /* \"#utility.yul\":766:885   */\n      iszero\n      tag_111\n      jumpi\n        /* \"#utility.yul\":804:883   */\n      tag_112\n      tag_88\n      jump\t// in\n    tag_112:\n        /* \"#utility.yul\":766:885   */\n    tag_111:\n        /* \"#utility.yul\":924:925   */\n      0x00\n        /* \"#utility.yul\":949:1002   */\n      tag_113\n        /* \"#utility.yul\":994:1001   */\n      dup5\n        /* \"#utility.yul\":985:991   */\n      dup3\n        /* \"#utility.yul\":974:983   */\n      dup6\n        /* \"#utility.yul\":970:992   */\n      add\n        /* \"#utility.yul\":949:1002   */\n      tag_92\n      jump\t// in\n    tag_113:\n        /* \"#utility.yul\":939:1002   */\n      swap2\n      pop\n        /* \"#utility.yul\":895:1012   */\n      pop\n        /* \"#utility.yul\":690:1019   */\n      swap3\n      swap2\n      pop\n      pop\n      jump\t// out\n        /* \"#utility.yul\":1025:1151   */\n    tag_93:\n        /* \"#utility.yul\":1062:1069   */\n      0x00\n        /* \"#utility.yul\":1102:1144   */\n      0xffffffffffffffffffffffffffffffffffffffff\n        /* \"#utility.yul\":1095:1100   */\n      dup3\n        /* \"#utility.yul\":1091:1145   */\n      and\n        /* \"#utility.yul\":1080:1145   */\n      swap1\n      pop\n        /* \"#utility.yul\":1025:1151   */\n      swap2\n      swap1\n      pop\n      jump\t// out\n        /* \"#utility.yul\":1157:1253   */\n    tag_94:\n        /* \"#utility.yul\":1194:1201   */\n      0x00\n        /* \"#utility.yul\":1223:1247   */\n      tag_116\n        /* \"#utility.yul\":1241:1246   */\n      dup3\n        /* \"#utility.yul\":1223:1247   */\n      tag_93\n      jump\t// in\n    tag_116:\n        /* \"#utility.yul\":1212:1247   */\n      swap1\n      pop\n        /* \"#utility.yul\":1157:1253   */\n      swap2\n      swap1\n      pop\n      jump\t// out\n        /* \"#utility.yul\":1259:1377   */\n    tag_95:\n        /* \"#utility.yul\":1346:1370   */\n      tag_118\n        /* \"#utility.yul\":1364:1369   */\n      dup2\n        /* \"#utility.yul\":1346:1370   */\n      tag_94\n      jump\t// in\n    tag_118:\n        /* \"#utility.yul\":1341:1344   */\n      dup3\n        /* \"#utility.yul\":1334:1371   */\n      mstore\n        /* \"#utility.yul\":1259:1377   */\n      pop\n      pop\n      jump\t// out\n        /* \"#utility.yul\":1383:1605   */\n    tag_21:\n        /* \"#utility.yul\":1476:1480   */\n      0x00\n        /* \"#utility.yul\":1514:1516   */\n      0x20\n        /* \"#utility.yul\":1503:1512   */\n      dup3\n        /* \"#utility.yul\":1499:1517   */\n      add\n        /* \"#utility.yul\":1491:1517   */\n      swap1\n      pop\n        /* \"#utility.yul\":1527:1598   */\n      tag_120\n        /* \"#utility.yul\":1595:1596   */\n      0x00\n        /* \"#utility.yul\":1584:1593   */\n      dup4\n        /* \"#utility.yul\":1580:1597   */\n      add\n        /* \"#utility.yul\":1571:1577   */\n      dup5\n        /* \"#utility.yul\":1527:1598   */\n      tag_95\n      jump\t// in\n    tag_120:\n        /* \"#utility.yul\":1383:1605   */\n      swap3\n      swap2\n      pop\n      pop\n      jump\t// out\n        /* \"#utility.yul\":1611:1733   */\n    tag_96:\n        /* \"#utility.yul\":1684:1708   */\n      tag_122\n        /* \"#utility.yul\":1702:1707   */\n      dup2\n        /* \"#utility.yul\":1684:1708   */\n      tag_94\n      jump\t// in\n    tag_122:\n        /* \"#utility.yul\":1677:1682   */\n      dup2\n        /* \"#utility.yul\":1674:1709   */\n      eq\n        /* \"#utility.yul\":1664:1727   */\n      tag_123\n      jumpi\n        /* \"#utility.yul\":1723:1724   */\n      0x00\n        /* \"#utility.yul\":1720:1721   */\n      dup1\n        /* \"#utility.yul\":1713:1725   */\n      revert\n        /* \"#utility.yul\":1664:1727   */\n    tag_123:\n        /* \"#utility.yul\":1611:1733   */\n      pop\n      jump\t// out\n        /* \"#utility.yul\":1739:1878   */\n    tag_97:\n        /* \"#utility.yul\":1785:1790   */\n      0x00\n        /* \"#utility.yul\":1823:1829   */\n      dup2\n        /* \"#utility.yul\":1810:1830   */\n      calldataload\n        /* \"#utility.yul\":1801:1830   */\n      swap1\n      pop\n        /* \"#utility.yul\":1839:1872   */\n      tag_125\n        /* \"#utility.yul\":1866:1871   */\n      dup2\n        /* \"#utility.yul\":1839:1872   */\n      tag_96\n      jump\t// in\n    tag_125:\n        /* \"#utility.yul\":1739:1878   */\n      swap3\n      swap2\n      pop\n      pop\n      jump\t// out\n        /* \"#utility.yul\":1884:2358   */\n    tag_28:\n        /* \"#utility.yul\":1952:1958   */\n      0x00\n        /* \"#utility.yul\":1960:1966   */\n      dup1\n        /* \"#utility.yul\":2009:2011   */\n      0x40\n        /* \"#utility.yul\":1997:2006   */\n      dup4\n        /* \"#utility.yul\":1988:1995   */\n      dup6\n        /* \"#utility.yul\":1984:2007   */\n      sub\n        /* \"#utility.yul\":1980:2012   */\n      slt\n        /* \"#utility.yul\":1977:2096   */\n      iszero\n      tag_127\n      jumpi\n        /* \"#utility.yul\":2015:2094   */\n      tag_128\n      tag_88\n      jump\t// in\n    tag_128:\n        /* \"#utility.yul\":1977:2096   */\n    tag_127:\n        /* \"#utility.yul\":2135:2136   */\n      0x00\n        /* \"#utility.yul\":2160:2213   */\n      tag_129\n        /* \"#utility.yul\":2205:2212   */\n      dup6\n        /* \"#utility.yul\":2196:2202   */\n      dup3\n        /* \"#utility.yul\":2185:2194   */\n      dup7\n        /* \"#utility.yul\":2181:2203   */\n      add\n        /* \"#utility.yul\":2160:2213   */\n      tag_97\n      jump\t// in\n    tag_129:\n        /* \"#utility.yul\":2150:2213   */\n      swap3\n      pop\n        /* \"#utility.yul\":2106:2223   */\n      pop\n        /* \"#utility.yul\":2262:2264   */\n      0x20\n        /* \"#utility.yul\":2288:2341   */\n      tag_130\n        /* \"#utility.yul\":2333:2340   */\n      dup6\n        /* \"#utility.yul\":2324:2330   */\n      dup3\n        /* \"#utility.yul\":2313:2322   */\n      dup7\n        /* \"#utility.yul\":2309:2331   */\n      add\n        /* \"#utility.yul\":2288:2341   */\n      tag_92\n      jump\t// in\n    tag_130:\n        /* \"#utility.yul\":2278:2341   */\n      swap2\n      pop\n        /* \"#utility.yul\":2233:2351   */\n      pop\n        /* \"#utility.yul\":1884:2358   */\n      swap3\n      pop\n      swap3\n      swap1\n      pop\n      jump\t// out\n        /* \"#utility.yul\":2364:2482   */\n    tag_98:\n        /* \"#utility.yul\":2451:2475   */\n      tag_132\n        /* \"#utility.yul\":2469:2474   */\n      dup2\n        /* \"#utility.yul\":2451:2475   */\n      tag_90\n      jump\t// in\n    tag_132:\n        /* \"#utility.yul\":2446:2449   */\n      dup3\n        /* \"#utility.yul\":2439:2476   */\n      mstore\n        /* \"#utility.yul\":2364:2482   */\n      pop\n      pop\n      jump\t// out\n        /* \"#utility.yul\":2488:2710   */\n    tag_34:\n        /* \"#utility.yul\":2581:2585   */\n      0x00\n        /* \"#utility.yul\":2619:2621   */\n      0x20\n        /* \"#utility.yul\":2608:2617   */\n      dup3\n        /* \"#utility.yul\":2604:2622   */\n      add\n        /* \"#utility.yul\":2596:2622   */\n      swap1\n      pop\n        /* \"#utility.yul\":2632:2703   */\n      tag_134\n        /* \"#utility.yul\":2700:2701   */\n      0x00\n        /* \"#utility.yul\":2689:2698   */\n      dup4\n        /* \"#utility.yul\":2685:2702   */\n      add\n        /* \"#utility.yul\":2676:2682   */\n      dup5\n        /* \"#utility.yul\":2632:2703   */\n      tag_98\n      jump\t// in\n    tag_134:\n        /* \"#utility.yul\":2488:2710   */\n      swap3\n      swap2\n      pop\n      pop\n      jump\t// out\n        /* \"#utility.yul\":2716:3045   */\n    tag_49:\n        /* \"#utility.yul\":2775:2781   */\n      0x00\n        /* \"#utility.yul\":2824:2826   */\n      0x20\n        /* \"#utility.yul\":2812:2821   */\n      dup3\n        /* \"#utility.yul\":2803:2810   */\n      dup5\n        /* \"#utility.yul\":2799:2822   */\n      sub\n        /* \"#utility.yul\":2795:2827   */\n      slt\n        /* \"#utility.yul\":2792:2911   */\n      iszero\n      tag_136\n      jumpi\n        /* \"#utility.yul\":2830:2909   */\n      tag_137\n      tag_88\n      jump\t// in\n    tag_137:\n        /* \"#utility.yul\":2792:2911   */\n    tag_136:\n        /* \"#utility.yul\":2950:2951   */\n      0x00\n        /* \"#utility.yul\":2975:3028   */\n      tag_138\n        /* \"#utility.yul\":3020:3027   */\n      dup5\n        /* \"#utility.yul\":3011:3017   */\n      dup3\n        /* \"#utility.yul\":3000:3009   */\n      dup6\n        /* \"#utility.yul\":2996:3018   */\n      add\n        /* \"#utility.yul\":2975:3028   */\n      tag_97\n      jump\t// in\n    tag_138:\n        /* \"#utility.yul\":2965:3028   */\n      swap2\n      pop\n        /* \"#utility.yul\":2921:3038   */\n      pop\n        /* \"#utility.yul\":2716:3045   */\n      swap3\n      swap2\n      pop\n      pop\n      jump\t// out\n        /* \"#utility.yul\":3051:3231   */\n    tag_99:\n        /* \"#utility.yul\":3099:3176   */\n      0x4e487b7100000000000000000000000000000000000000000000000000000000\n        /* \"#utility.yul\":3096:3097   */\n      0x00\n        /* \"#utility.yul\":3089:3177   */\n      mstore\n        /* \"#utility.yul\":3196:3200   */\n      0x11\n        /* \"#utility.yul\":3193:3194   */\n      0x04\n        /* \"#utility.yul\":3186:3201   */\n      mstore\n        /* \"#utility.yul\":3220:3224   */\n      0x24\n        /* \"#utility.yul\":3217:3218   */\n      0x00\n        /* \"#utility.yul\":3210:3225   */\n      revert\n        /* \"#utility.yul\":3237:3431   */\n    tag_55:\n        /* \"#utility.yul\":3277:3281   */\n      0x00\n        /* \"#utility.yul\":3297:3317   */\n      tag_141\n        /* \"#utility.yul\":3315:3316   */\n      dup3\n        /* \"#utility.yul\":3297:3317   */\n      tag_90\n      jump\t// in\n    tag_141:\n        /* \"#utility.yul\":3292:3317   */\n      swap2\n      pop\n        /* \"#utility.yul\":3331:3351   */\n      tag_142\n        /* \"#utility.yul\":3349:3350   */\n      dup4\n        /* \"#utility.yul\":3331:3351   */\n      tag_90\n      jump\t// in\n    tag_142:\n        /* \"#utility.yul\":3326:3351   */\n      swap3\n      pop\n        /* \"#utility.yul\":3375:3376   */\n      dup3\n        /* \"#utility.yul\":3372:3373   */\n      dup3\n        /* \"#utility.yul\":3368:3377   */\n      sub\n        /* \"#utility.yul\":3360:3377   */\n      swap1\n      pop\n        /* \"#utility.yul\":3399:3400   */\n      dup2\n        /* \"#utility.yul\":3393:3397   */\n      dup2\n        /* \"#utility.yul\":3390:3401   */\n      gt\n        /* \"#utility.yul\":3387:3424   */\n      iszero\n      tag_143\n      jumpi\n        /* \"#utility.yul\":3404:3422   */\n      tag_144\n      tag_99\n      jump\t// in\n    tag_144:\n        /* \"#utility.yul\":3387:3424   */\n    tag_143:\n        /* \"#utility.yul\":3237:3431   */\n      swap3\n      swap2\n      pop\n      pop\n      jump\t// out\n        /* \"#utility.yul\":3437:3617   */\n    tag_65:\n        /* \"#utility.yul\":3485:3562   */\n      0x4e487b7100000000000000000000000000000000000000000000000000000000\n        /* \"#utility.yul\":3482:3483   */\n      0x00\n        /* \"#utility.yul\":3475:3563   */\n      mstore\n        /* \"#utility.yul\":3582:3586   */\n      0x32\n        /* \"#utility.yul\":3579:3580   */\n      0x04\n        /* \"#utility.yul\":3572:3587   */\n      mstore\n        /* \"#utility.yul\":3606:3610   */\n      0x24\n        /* \"#utility.yul\":3603:3604   */\n      0x00\n        /* \"#utility.yul\":3596:3611   */\n      revert\n        /* \"#utility.yul\":3623:3814   */\n    tag_69:\n        /* \"#utility.yul\":3663:3666   */\n      0x00\n        /* \"#utility.yul\":3682:3702   */\n      tag_147\n        /* \"#utility.yul\":3700:3701   */\n      dup3\n        /* \"#utility.yul\":3682:3702   */\n      tag_90\n      jump\t// in\n    tag_147:\n        /* \"#utility.yul\":3677:3702   */\n      swap2\n      pop\n        /* \"#utility.yul\":3716:3736   */\n      tag_148\n        /* \"#utility.yul\":3734:3735   */\n      dup4\n        /* \"#utility.yul\":3716:3736   */\n      tag_90\n      jump\t// in\n    tag_148:\n        /* \"#utility.yul\":3711:3736   */\n      swap3\n      pop\n        /* \"#utility.yul\":3759:3760   */\n      dup3\n        /* \"#utility.yul\":3756:3757   */\n      dup3\n        /* \"#utility.yul\":3752:3761   */\n      add\n        /* \"#utility.yul\":3745:3761   */\n      swap1\n      pop\n        /* \"#utility.yul\":3780:3783   */\n      dup1\n        /* \"#utility.yul\":3777:3778   */\n      dup3\n        /* \"#utility.yul\":3774:3784   */\n      gt\n        /* \"#utility.yul\":3771:3807   */\n      iszero\n      tag_149\n      jumpi\n        /* \"#utility.yul\":3787:3805   */\n      tag_150\n      tag_99\n      jump\t// in\n    tag_150:\n        /* \"#utility.yul\":3771:3807   */\n    tag_149:\n        /* \"#utility.yul\":3623:3814   */\n      swap3\n      swap2\n      pop\n      pop\n      jump\t// out\n        /* \"#utility.yul\":3820:4053   */\n    tag_73:\n        /* \"#utility.yul\":3859:3862   */\n      0x00\n        /* \"#utility.yul\":3882:3906   */\n      tag_152\n        /* \"#utility.yul\":3900:3905   */\n      dup3\n        /* \"#utility.yul\":3882:3906   */\n      tag_90\n      jump\t// in\n    tag_152:\n        /* \"#utility.yul\":3873:3906   */\n      swap2\n      pop\n        /* \"#utility.yul\":3928:3994   */\n      0xffffffffffffffffffffffffffffffffffffffffffffffffffffffffffffffff\n        /* \"#utility.yul\":3921:3926   */\n      dup3\n        /* \"#utility.yul\":3918:3995   */\n      sub\n        /* \"#utility.yul\":3915:4018   */\n      tag_153\n      jumpi\n        /* \"#utility.yul\":3998:4016   */\n      tag_154\n      tag_99\n      jump\t// in\n    tag_154:\n        /* \"#utility.yul\":3915:4018   */\n    tag_153:\n        /* \"#utility.yul\":4045:4046   */\n      0x01\n        /* \"#utility.yul\":4038:4043   */\n      dup3\n        /* \"#utility.yul\":4034:4047   */\n      add\n        /* \"#utility.yul\":4027:4047   */\n      swap1\n      pop\n        /* \"#utility.yul\":3820:4053   */\n      swap2\n      swap1\n      pop\n      jump\t// out\n\n    auxdata: 0xa2646970667358221220f9b5502eea44a684bbdd6e43ab35c9448ddd7a7840ae9578833f1963ff4776ce64736f6c63430008140033\n}\n",
				"bytecode": {
					"linkReferences": {},
					"object": "608060405234801561000f575f80fd5b505f8054906101000a905050600a6001819055506107d0806100305f395ff3fe608060405234801561000f575f80fd5b506004361061009c575f3560e01c8063be9a655511610064578063be9a655514610156578063cd9d25ba14610160578063de29278914610190578063f247d217146101ae578063f8b2cb4f146101ca5761009c565b806312514bba146100a057806338cc4831146100bc57806380402564146100da5780638861e6461461010a578063ae1659a114610126575b5f80fd5b6100ba60048036038101906100b59190610555565b6101fa565b005b6100c461021f565b6040516100d191906105bf565b60405180910390f35b6100f460048036038101906100ef9190610555565b610246565b60405161010191906105bf565b60405180910390f35b610124600480360381019061011f9190610602565b610281565b005b610140600480360381019061013b9190610555565b610379565b60405161014d919061064f565b60405180910390f35b61015e61039c565b005b61017a60048036038101906101759190610555565b6103e5565b604051610187919061064f565b60405180910390f35b610198610429565b6040516101a5919061064f565b60405180910390f35b6101c860048036038101906101c39190610602565b610432565b005b6101e460048036038101906101df9190610668565b6104d8565b6040516101f1919061064f565b60405180910390f35b806001541061021c578060015f82825461021491906106c0565b925050819055505b50565b5f805f9054906101000a900473ffffffffffffffffffffffffffffffffffffffff16905090565b60028181548110610255575f80fd5b905f5260205f20015f915054906101000a900473ffffffffffffffffffffffffffffffffffffffff1681565b5f5b600280549050811015610374578273ffffffffffffffffffffffffffffffffffffffff16600282815481106102bb576102ba6106f3565b5b905f5260205f20015f9054906101000a900473ffffffffffffffffffffffffffffffffffffffff1673ffffffffffffffffffffffffffffffffffffffff1603610356578160035f8573ffffffffffffffffffffffffffffffffffffffff1673ffffffffffffffffffffffffffffffffffffffff1681526020019081526020015f205f82825461034a9190610720565b92505081905550610361565b6103608383610432565b5b808061036c90610753565b915050610283565b505050565b5f8160015f82825461038b91906106c0565b925050819055506001549050919050565b335f806101000a81548173ffffffffffffffffffffffffffffffffffffffff021916908373ffffffffffffffffffffffffffffffffffffffff1602179055506064600181905550565b5f80600190505b82811161041e578060015f8282546104049190610720565b92505081905550808061041690610753565b9150506103ec565b506001549050919050565b5f600154905090565b600282908060018154018082558091505060019003905f5260205f20015f9091909190916101000a81548173ffffffffffffffffffffffffffffffffffffffff021916908373ffffffffffffffffffffffffffffffffffffffff1602179055508060035f8473ffffffffffffffffffffffffffffffffffffffff1673ffffffffffffffffffffffffffffffffffffffff1681526020019081526020015f20819055505050565b5f60035f8373ffffffffffffffffffffffffffffffffffffffff1673ffffffffffffffffffffffffffffffffffffffff1681526020019081526020015f20549050919050565b5f80fd5b5f819050919050565b61053481610522565b811461053e575f80fd5b50565b5f8135905061054f8161052b565b92915050565b5f6020828403121561056a5761056961051e565b5b5f61057784828501610541565b91505092915050565b5f73ffffffffffffffffffffffffffffffffffffffff82169050919050565b5f6105a982610580565b9050919050565b6105b98161059f565b82525050565b5f6020820190506105d25f8301846105b0565b92915050565b6105e18161059f565b81146105eb575f80fd5b50565b5f813590506105fc816105d8565b92915050565b5f80604083850312156106185761061761051e565b5b5f610625858286016105ee565b925050602061063685828601610541565b9150509250929050565b61064981610522565b82525050565b5f6020820190506106625f830184610640565b92915050565b5f6020828403121561067d5761067c61051e565b5b5f61068a848285016105ee565b91505092915050565b7f4e487b71000000000000000000000000000000000000000000000000000000005f52601160045260245ffd5b5f6106ca82610522565b91506106d583610522565b92508282039050818111156106ed576106ec610693565b5b92915050565b7f4e487b71000000000000000000000000000000000000000000000000000000005f52603260045260245ffd5b5f61072a82610522565b915061073583610522565b925082820190508082111561074d5761074c610693565b5b92915050565b5f61075d82610522565b91507fffffffffffffffffffffffffffffffffffffffffffffffffffffffffffffffff820361078f5761078e610693565b5b60018201905091905056fea2646970667358221220f9b5502eea44a684bbdd6e43ab35c9448ddd7a7840ae9578833f1963ff4776ce64736f6c63430008140033",
					"opcodes": "PUSH1 0x80 PUSH1 0x40 MSTORE CALLVALUE DUP1 ISZERO PUSH2 0xF JUMPI PUSH0 DUP1 REVERT JUMPDEST POP PUSH0 DUP1 SLOAD SWAP1 PUSH2 0x100 EXP SWAP1 POP POP PUSH1 0xA PUSH1 0x1 DUP2 SWAP1 SSTORE POP PUSH2 0x7D0 DUP1 PUSH2 0x30 PUSH0 CODECOPY PUSH0 RETURN INVALID PUSH1 0x80 PUSH1 0x40 MSTORE CALLVALUE DUP1 ISZERO PUSH2 0xF JUMPI PUSH0 DUP1 REVERT JUMPDEST POP PUSH1 0x4 CALLDATASIZE LT PUSH2 0x9C JUMPI PUSH0 CALLDATALOAD PUSH1 0xE0 SHR DUP1 PUSH4 0xBE9A6555 GT PUSH2 0x64 JUMPI DUP1 PUSH4 0xBE9A6555 EQ PUSH2 0x156 JUMPI DUP1 PUSH4 0xCD9D25BA EQ PUSH2 0x160 JUMPI DUP1 PUSH4 0xDE292789 EQ PUSH2 0x190 JUMPI DUP1 PUSH4 0xF247D217 EQ PUSH2 0x1AE JUMPI DUP1 PUSH4 0xF8B2CB4F EQ PUSH2 0x1CA JUMPI PUSH2 0x9C JUMP JUMPDEST DUP1 PUSH4 0x12514BBA EQ PUSH2 0xA0 JUMPI DUP1 PUSH4 0x38CC4831 EQ PUSH2 0xBC JUMPI DUP1 PUSH4 0x80402564 EQ PUSH2 0xDA JUMPI DUP1 PUSH4 0x8861E646 EQ PUSH2 0x10A JUMPI DUP1 PUSH4 0xAE1659A1 EQ PUSH2 0x126 JUMPI JUMPDEST PUSH0 DUP1 REVERT JUMPDEST PUSH2 0xBA PUSH1 0x4 DUP1 CALLDATASIZE SUB DUP2 ADD SWAP1 PUSH2 0xB5 SWAP2 SWAP1 PUSH2 0x555 JUMP JUMPDEST PUSH2 0x1FA JUMP JUMPDEST STOP JUMPDEST PUSH2 0xC4 PUSH2 0x21F JUMP JUMPDEST PUSH1 0x40 MLOAD PUSH2 0xD1 SWAP2 SWAP1 PUSH2 0x5BF JUMP JUMPDEST PUSH1 0x40 MLOAD DUP1 SWAP2 SUB SWAP1 RETURN JUMPDEST PUSH2 0xF4 PUSH1 0x4 DUP1 CALLDATASIZE SUB DUP2 ADD SWAP1 PUSH2 0xEF SWAP2 SWAP1 PUSH2 0x555 JUMP JUMPDEST PUSH2 0x246 JUMP JUMPDEST PUSH1 0x40 MLOAD PUSH2 0x101 SWAP2 SWAP1 PUSH2 0x5BF JUMP JUMPDEST PUSH1 0x40 MLOAD DUP1 SWAP2 SUB SWAP1 RETURN JUMPDEST PUSH2 0x124 PUSH1 0x4 DUP1 CALLDATASIZE SUB DUP2 ADD SWAP1 PUSH2 0x11F SWAP2 SWAP1 PUSH2 0x602 JUMP JUMPDEST PUSH2 0x281 JUMP JUMPDEST STOP JUMPDEST PUSH2 0x140 PUSH1 0x4 DUP1 CALLDATASIZE SUB DUP2 ADD SWAP1 PUSH2 0x13B SWAP2 SWAP1 PUSH2 0x555 JUMP JUMPDEST PUSH2 0x379 JUMP JUMPDEST PUSH1 0x40 MLOAD PUSH2 0x14D SWAP2 SWAP1 PUSH2 0x64F JUMP JUMPDEST PUSH1 0x40 MLOAD DUP1 SWAP2 SUB SWAP1 RETURN JUMPDEST PUSH2 0x15E PUSH2 0x39C JUMP JUMPDEST STOP JUMPDEST PUSH2 0x17A PUSH1 0x4 DUP1 CALLDATASIZE SUB DUP2 ADD SWAP1 PUSH2 0x175 SWAP2 SWAP1 PUSH2 0x555 JUMP JUMPDEST PUSH2 0x3E5 JUMP JUMPDEST PUSH1 0x40 MLOAD PUSH2 0x187 SWAP2 SWAP1 PUSH2 0x64F JUMP JUMPDEST PUSH1 0x40 MLOAD DUP1 SWAP2 SUB SWAP1 RETURN JUMPDEST PUSH2 0x198 PUSH2 0x429 JUMP JUMPDEST PUSH1 0x40 MLOAD PUSH2 0x1A5 SWAP2 SWAP1 PUSH2 0x64F JUMP JUMPDEST PUSH1 0x40 MLOAD DUP1 SWAP2 SUB SWAP1 RETURN JUMPDEST PUSH2 0x1C8 PUSH1 0x4 DUP1 CALLDATASIZE SUB DUP2 ADD SWAP1 PUSH2 0x1C3 SWAP2 SWAP1 PUSH2 0x602 JUMP JUMPDEST PUSH2 0x432 JUMP JUMPDEST STOP JUMPDEST PUSH2 0x1E4 PUSH1 0x4 DUP1 CALLDATASIZE SUB DUP2 ADD SWAP1 PUSH2 0x1DF SWAP2 SWAP1 PUSH2 0x668 JUMP JUMPDEST PUSH2 0x4D8 JUMP JUMPDEST PUSH1 0x40 MLOAD PUSH2 0x1F1 SWAP2 SWAP1 PUSH2 0x64F JUMP JUMPDEST PUSH1 0x40 MLOAD DUP1 SWAP2 SUB SWAP1 RETURN JUMPDEST DUP1 PUSH1 0x1 SLOAD LT PUSH2 0x21C JUMPI DUP1 PUSH1 0x1 PUSH0 DUP3 DUP3 SLOAD PUSH2 0x214 SWAP2 SWAP1 PUSH2 0x6C0 JUMP JUMPDEST SWAP3 POP POP DUP2 SWAP1 SSTORE POP JUMPDEST POP JUMP JUMPDEST PUSH0 DUP1 PUSH0 SWAP1 SLOAD SWAP1 PUSH2 0x100 EXP SWAP1 DIV PUSH20 0xFFFFFFFFFFFFFFFFFFFFFFFFFFFFFFFFFFFFFFFF AND SWAP1 POP SWAP1 JUMP JUMPDEST PUSH1 0x2 DUP2 DUP2 SLOAD DUP2 LT PUSH2 0x255 JUMPI PUSH0 DUP1 REVERT JUMPDEST SWAP1 PUSH0 MSTORE PUSH1 0x20 PUSH0 KECCAK256 ADD PUSH0 SWAP2 POP SLOAD SWAP1 PUSH2 0x100 EXP SWAP1 DIV PUSH20 0xFFFFFFFFFFFFFFFFFFFFFFFFFFFFFFFFFFFFFFFF AND DUP2 JUMP JUMPDEST PUSH0 JUMPDEST PUSH1 0x2 DUP1 SLOAD SWAP1 POP DUP2 LT ISZERO PUSH2 0x374 JUMPI DUP3 PUSH20 0xFFFFFFFFFFFFFFFFFFFFFFFFFFFFFFFFFFFFFFFF AND PUSH1 0x2 DUP3 DUP2 SLOAD DUP2 LT PUSH2 0x2BB JUMPI PUSH2 0x2BA PUSH2 0x6F3 JUMP JUMPDEST JUMPDEST SWAP1 PUSH0 MSTORE PUSH1 0x20 PUSH0 KECCAK256 ADD PUSH0 SWAP1 SLOAD SWAP1 PUSH2 0x100 EXP SWAP1 DIV PUSH20 0xFFFFFFFFFFFFFFFFFFFFFFFFFFFFFFFFFFFFFFFF AND PUSH20 0xFFFFFFFFFFFFFFFFFFFFFFFFFFFFFFFFFFFFFFFF AND SUB PUSH2 0x356 JUMPI DUP2 PUSH1 0x3 PUSH0 DUP6 PUSH20 0xFFFFFFFFFFFFFFFFFFFFFFFFFFFFFFFFFFFFFFFF AND PUSH20 0xFFFFFFFFFFFFFFFFFFFFFFFFFFFFFFFFFFFFFFFF AND DUP2 MSTORE PUSH1 0x20 ADD SWAP1 DUP2 MSTORE PUSH1 0x20 ADD PUSH0 KECCAK256 PUSH0 DUP3 DUP3 SLOAD PUSH2 0x34A SWAP2 SWAP1 PUSH2 0x720 JUMP JUMPDEST SWAP3 POP POP DUP2 SWAP1 SSTORE POP PUSH2 0x361 JUMP JUMPDEST PUSH2 0x360 DUP4 DUP4 PUSH2 0x432 JUMP JUMPDEST JUMPDEST DUP1 DUP1 PUSH2 0x36C SWAP1 PUSH2 0x753 JUMP JUMPDEST SWAP2 POP POP PUSH2 0x283 JUMP JUMPDEST POP POP POP JUMP JUMPDEST PUSH0 DUP2 PUSH1 0x1 PUSH0 DUP3 DUP3 SLOAD PUSH2 0x38B SWAP2 SWAP1 PUSH2 0x6C0 JUMP JUMPDEST SWAP3 POP POP DUP2 SWAP1 SSTORE POP PUSH1 0x1 SLOAD SWAP1 POP SWAP2 SWAP1 POP JUMP JUMPDEST CALLER PUSH0 DUP1 PUSH2 0x100 EXP DUP2 SLOAD DUP2 PUSH20 0xFFFFFFFFFFFFFFFFFFFFFFFFFFFFFFFFFFFFFFFF MUL NOT AND SWAP1 DUP4 PUSH20 0xFFFFFFFFFFFFFFFFFFFFFFFFFFFFFFFFFFFFFFFF AND MUL OR SWAP1 SSTORE POP PUSH1 0x64 PUSH1 0x1 DUP2 SWAP1 SSTORE POP JUMP JUMPDEST PUSH0 DUP1 PUSH1 0x1 SWAP1 POP JUMPDEST DUP3 DUP2 GT PUSH2 0x41E JUMPI DUP1 PUSH1 0x1 PUSH0 DUP3 DUP3 SLOAD PUSH2 0x404 SWAP2 SWAP1 PUSH2 0x720 JUMP JUMPDEST SWAP3 POP POP DUP2 SWAP1 SSTORE POP DUP1 DUP1 PUSH2 0x416 SWAP1 PUSH2 0x753 JUMP JUMPDEST SWAP2 POP POP PUSH2 0x3EC JUMP JUMPDEST POP PUSH1 0x1 SLOAD SWAP1 POP SWAP2 SWAP1 POP JUMP JUMPDEST PUSH0 PUSH1 0x1 SLOAD SWAP1 POP SWAP1 JUMP JUMPDEST PUSH1 0x2 DUP3 SWAP1 DUP1 PUSH1 0x1 DUP2 SLOAD ADD DUP1 DUP3 SSTORE DUP1 SWAP2 POP POP PUSH1 0x1 SWAP1 SUB SWAP1 PUSH0 MSTORE PUSH1 0x20 PUSH0 KECCAK256 ADD PUSH0 SWAP1 SWAP2 SWAP1 SWAP2 SWAP1 SWAP2 PUSH2 0x100 EXP DUP2 SLOAD DUP2 PUSH20 0xFFFFFFFFFFFFFFFFFFFFFFFFFFFFFFFFFFFFFFFF MUL NOT AND SWAP1 DUP4 PUSH20 0xFFFFFFFFFFFFFFFFFFFFFFFFFFFFFFFFFFFFFFFF AND MUL OR SWAP1 SSTORE POP DUP1 PUSH1 0x3 PUSH0 DUP5 PUSH20 0xFFFFFFFFFFFFFFFFFFFFFFFFFFFFFFFFFFFFFFFF AND PUSH20 0xFFFFFFFFFFFFFFFFFFFFFFFFFFFFFFFFFFFFFFFF AND DUP2 MSTORE PUSH1 0x20 ADD SWAP1 DUP2 MSTORE PUSH1 0x20 ADD PUSH0 KECCAK256 DUP2 SWAP1 SSTORE POP POP POP JUMP JUMPDEST PUSH0 PUSH1 0x3 PUSH0 DUP4 PUSH20 0xFFFFFFFFFFFFFFFFFFFFFFFFFFFFFFFFFFFFFFFF AND PUSH20 0xFFFFFFFFFFFFFFFFFFFFFFFFFFFFFFFFFFFFFFFF AND DUP2 MSTORE PUSH1 0x20 ADD SWAP1 DUP2 MSTORE PUSH1 0x20 ADD PUSH0 KECCAK256 SLOAD SWAP1 POP SWAP2 SWAP1 POP JUMP JUMPDEST PUSH0 DUP1 REVERT JUMPDEST PUSH0 DUP2 SWAP1 POP SWAP2 SWAP1 POP JUMP JUMPDEST PUSH2 0x534 DUP2 PUSH2 0x522 JUMP JUMPDEST DUP2 EQ PUSH2 0x53E JUMPI PUSH0 DUP1 REVERT JUMPDEST POP JUMP JUMPDEST PUSH0 DUP2 CALLDATALOAD SWAP1 POP PUSH2 0x54F DUP2 PUSH2 0x52B JUMP JUMPDEST SWAP3 SWAP2 POP POP JUMP JUMPDEST PUSH0 PUSH1 0x20 DUP3 DUP5 SUB SLT ISZERO PUSH2 0x56A JUMPI PUSH2 0x569 PUSH2 0x51E JUMP JUMPDEST JUMPDEST PUSH0 PUSH2 0x577 DUP5 DUP3 DUP6 ADD PUSH2 0x541 JUMP JUMPDEST SWAP2 POP POP SWAP3 SWAP2 POP POP JUMP JUMPDEST PUSH0 PUSH20 0xFFFFFFFFFFFFFFFFFFFFFFFFFFFFFFFFFFFFFFFF DUP3 AND SWAP1 POP SWAP2 SWAP1 POP JUMP JUMPDEST PUSH0 PUSH2 0x5A9 DUP3 PUSH2 0x580 JUMP JUMPDEST SWAP1 POP SWAP2 SWAP1 POP JUMP JUMPDEST PUSH2 0x5B9 DUP2 PUSH2 0x59F JUMP JUMPDEST DUP3 MSTORE POP POP JUMP JUMPDEST PUSH0 PUSH1 0x20 DUP3 ADD SWAP1 POP PUSH2 0x5D2 PUSH0 DUP4 ADD DUP5 PUSH2 0x5B0 JUMP JUMPDEST SWAP3 SWAP2 POP POP JUMP JUMPDEST PUSH2 0x5E1 DUP2 PUSH2 0x59F JUMP JUMPDEST DUP2 EQ PUSH2 0x5EB JUMPI PUSH0 DUP1 REVERT JUMPDEST POP JUMP JUMPDEST PUSH0 DUP2 CALLDATALOAD SWAP1 POP PUSH2 0x5FC DUP2 PUSH2 0x5D8 JUMP JUMPDEST SWAP3 SWAP2 POP POP JUMP JUMPDEST PUSH0 DUP1 PUSH1 0x40 DUP4 DUP6 SUB SLT ISZERO PUSH2 0x618 JUMPI PUSH2 0x617 PUSH2 0x51E JUMP JUMPDEST JUMPDEST PUSH0 PUSH2 0x625 DUP6 DUP3 DUP7 ADD PUSH2 0x5EE JUMP JUMPDEST SWAP3 POP POP PUSH1 0x20 PUSH2 0x636 DUP6 DUP3 DUP7 ADD PUSH2 0x541 JUMP JUMPDEST SWAP2 POP POP SWAP3 POP SWAP3 SWAP1 POP JUMP JUMPDEST PUSH2 0x649 DUP2 PUSH2 0x522 JUMP JUMPDEST DUP3 MSTORE POP POP JUMP JUMPDEST PUSH0 PUSH1 0x20 DUP3 ADD SWAP1 POP PUSH2 0x662 PUSH0 DUP4 ADD DUP5 PUSH2 0x640 JUMP JUMPDEST SWAP3 SWAP2 POP POP JUMP JUMPDEST PUSH0 PUSH1 0x20 DUP3 DUP5 SUB SLT ISZERO PUSH2 0x67D JUMPI PUSH2 0x67C PUSH2 0x51E JUMP JUMPDEST JUMPDEST PUSH0 PUSH2 0x68A DUP5 DUP3 DUP6 ADD PUSH2 0x5EE JUMP JUMPDEST SWAP2 POP POP SWAP3 SWAP2 POP POP JUMP JUMPDEST PUSH32 0x4E487B7100000000000000000000000000000000000000000000000000000000 PUSH0 MSTORE PUSH1 0x11 PUSH1 0x4 MSTORE PUSH1 0x24 PUSH0 REVERT JUMPDEST PUSH0 PUSH2 0x6CA DUP3 PUSH2 0x522 JUMP JUMPDEST SWAP2 POP PUSH2 0x6D5 DUP4 PUSH2 0x522 JUMP JUMPDEST SWAP3 POP DUP3 DUP3 SUB SWAP1 POP DUP2 DUP2 GT ISZERO PUSH2 0x6ED JUMPI PUSH2 0x6EC PUSH2 0x693 JUMP JUMPDEST JUMPDEST SWAP3 SWAP2 POP POP JUMP JUMPDEST PUSH32 0x4E487B7100000000000000000000000000000000000000000000000000000000 PUSH0 MSTORE PUSH1 0x32 PUSH1 0x4 MSTORE PUSH1 0x24 PUSH0 REVERT JUMPDEST PUSH0 PUSH2 0x72A DUP3 PUSH2 0x522 JUMP JUMPDEST SWAP2 POP PUSH2 0x735 DUP4 PUSH2 0x522 JUMP JUMPDEST SWAP3 POP DUP3 DUP3 ADD SWAP1 POP DUP1 DUP3 GT ISZERO PUSH2 0x74D JUMPI PUSH2 0x74C PUSH2 0x693 JUMP JUMPDEST JUMPDEST SWAP3 SWAP2 POP POP JUMP JUMPDEST PUSH0 PUSH2 0x75D DUP3 PUSH2 0x522 JUMP JUMPDEST SWAP2 POP PUSH32 0xFFFFFFFFFFFFFFFFFFFFFFFFFFFFFFFFFFFFFFFFFFFFFFFFFFFFFFFFFFFFFFFF DUP3 SUB PUSH2 0x78F JUMPI PUSH2 0x78E PUSH2 0x693 JUMP JUMPDEST JUMPDEST PUSH1 0x1 DUP3 ADD SWAP1 POP SWAP2 SWAP1 POP JUMP INVALID LOG2 PUSH5 0x6970667358 0x22 SLT KECCAK256 0xF9 0xB5 POP 0x2E 0xEA PREVRANDAO 0xA6 DUP5 0xBB 0xDD PUSH15 0x43AB35C9448DDD7A7840AE9578833F NOT PUSH4 0xFF4776CE PUSH5 0x736F6C6343 STOP ADDMOD EQ STOP CALLER "
				},
				"gasEstimates": {
					"creation": {
						"codeDepositCost": "400000",
						"executionCost": "24676",
						"totalCost": "424676"
					},
					"external": {
						"addrList(uint256)": "4989",
						"createWallet(address,uint256)": "71464",
						"depositWallet(address,uint256)": "infinite",
						"getAddress()": "2538",
						"getBalance(address)": "2917",
						"getResult()": "2476",
						"minusResult(uint256)": "infinite",
						"start()": "46522",
						"sumResult(uint256)": "infinite",
						"transfer(uint256)": "infinite"
					}
				},
				"methodIdentifiers": {
					"addrList(uint256)": "80402564",
					"createWallet(address,uint256)": "f247d217",
					"depositWallet(address,uint256)": "8861e646",
					"getAddress()": "38cc4831",
					"getBalance(address)": "f8b2cb4f",
					"getResult()": "de292789",
					"minusResult(uint256)": "ae1659a1",
					"start()": "be9a6555",
					"sumResult(uint256)": "cd9d25ba",
					"transfer(uint256)": "12514bba"
				}
			},
			"storageLayout": {
				"storage": [
					{
						"astId": 3,
						"contract": "myToken.sol:MyToken",
						"label": "userAddr",
						"offset": 0,
						"slot": "0",
						"type": "t_address"
					},
					{
						"astId": 5,
						"contract": "myToken.sol:MyToken",
						"label": "result",
						"offset": 0,
						"slot": "1",
						"type": "t_uint256"
					},
					{
						"astId": 8,
						"contract": "myToken.sol:MyToken",
						"label": "addrList",
						"offset": 0,
						"slot": "2",
						"type": "t_array(t_address)dyn_storage"
					},
					{
						"astId": 12,
						"contract": "myToken.sol:MyToken",
						"label": "wallet",
						"offset": 0,
						"slot": "3",
						"type": "t_mapping(t_address,t_uint256)"
					}
				],
				"types": {
					"t_address": {
						"encoding": "inplace",
						"label": "address",
						"numberOfBytes": "20"
					},
					"t_array(t_address)dyn_storage": {
						"base": "t_address",
						"encoding": "dynamic_array",
						"label": "address[]",
						"numberOfBytes": "32"
					},
					"t_mapping(t_address,t_uint256)": {
						"encoding": "mapping",
						"key": "t_address",
						"label": "mapping(address => uint256)",
						"numberOfBytes": "32",
						"value": "t_uint256"
					},
					"t_uint256": {
						"encoding": "inplace",
						"label": "uint256",
						"numberOfBytes": "32"
					}
				}
			},
			"userdoc": {
				"kind": "user",
				"methods": {},
				"version": 1
			}
		}
	}
}