{
	"data": {
		"bytecode": {
			"linkReferences": {},
			"object": "608060405234801561000f575f80fd5b506102428061001d5f395ff3fe608060405234801561000f575f80fd5b506004361061004a575f3560e01c80633fa4f2451461004e578063c3da42b81461006c578063d5e267721461008a578063f104a3f8146100a6575b5f80fd5b6100566100d6565b6040516100639190610127565b60405180910390f35b6100746100db565b6040516100819190610127565b60405180910390f35b6100a4600480360381019061009f919061016e565b6100e1565b005b6100c060048036038101906100bb919061016e565b6100f5565b6040516100cd9190610127565b60405180910390f35b5f5481565b60015481565b6100eb82826100f5565b6001819055505050565b5f80828461010391906101d9565b90508091505092915050565b5f819050919050565b6101218161010f565b82525050565b5f60208201905061013a5f830184610118565b92915050565b5f80fd5b61014d8161010f565b8114610157575f80fd5b50565b5f8135905061016881610144565b92915050565b5f806040838503121561018457610183610140565b5b5f6101918582860161015a565b92505060206101a28582860161015a565b9150509250929050565b7f4e487b71000000000000000000000000000000000000000000000000000000005f52601160045260245ffd5b5f6101e38261010f565b91506101ee8361010f565b9250828201905080821115610206576102056101ac565b5b9291505056fea2646970667358221220fd23be5c1bd5ed2b008cdecf734757535b4d6a15b221279fad39eccda483fc5064736f6c63430008140033",
			"opcodes": "PUSH1 0x80 PUSH1 0x40 MSTORE CALLVALUE DUP1 ISZERO PUSH2 0xF JUMPI PUSH0 DUP1 REVERT JUMPDEST POP PUSH2 0x242 DUP1 PUSH2 0x1D PUSH0 CODECOPY PUSH0 RETURN INVALID PUSH1 0x80 PUSH1 0x40 MSTORE CALLVALUE DUP1 ISZERO PUSH2 0xF JUMPI PUSH0 DUP1 REVERT JUMPDEST POP PUSH1 0x4 CALLDATASIZE LT PUSH2 0x4A JUMPI PUSH0 CALLDATALOAD PUSH1 0xE0 SHR DUP1 PUSH4 0x3FA4F245 EQ PUSH2 0x4E JUMPI DUP1 PUSH4 0xC3DA42B8 EQ PUSH2 0x6C JUMPI DUP1 PUSH4 0xD5E26772 EQ PUSH2 0x8A JUMPI DUP1 PUSH4 0xF104A3F8 EQ PUSH2 0xA6 JUMPI JUMPDEST PUSH0 DUP1 REVERT JUMPDEST PUSH2 0x56 PUSH2 0xD6 JUMP JUMPDEST PUSH1 0x40 MLOAD PUSH2 0x63 SWAP2 SWAP1 PUSH2 0x127 JUMP JUMPDEST PUSH1 0x40 MLOAD DUP1 SWAP2 SUB SWAP1 RETURN JUMPDEST PUSH2 0x74 PUSH2 0xDB JUMP JUMPDEST PUSH1 0x40 MLOAD PUSH2 0x81 SWAP2 SWAP1 PUSH2 0x127 JUMP JUMPDEST PUSH1 0x40 MLOAD DUP1 SWAP2 SUB SWAP1 RETURN JUMPDEST PUSH2 0xA4 PUSH1 0x4 DUP1 CALLDATASIZE SUB DUP2 ADD SWAP1 PUSH2 0x9F SWAP2 SWAP1 PUSH2 0x16E JUMP JUMPDEST PUSH2 0xE1 JUMP JUMPDEST STOP JUMPDEST PUSH2 0xC0 PUSH1 0x4 DUP1 CALLDATASIZE SUB DUP2 ADD SWAP1 PUSH2 0xBB SWAP2 SWAP1 PUSH2 0x16E JUMP JUMPDEST PUSH2 0xF5 JUMP JUMPDEST PUSH1 0x40 MLOAD PUSH2 0xCD SWAP2 SWAP1 PUSH2 0x127 JUMP JUMPDEST PUSH1 0x40 MLOAD DUP1 SWAP2 SUB SWAP1 RETURN JUMPDEST PUSH0 SLOAD DUP2 JUMP JUMPDEST PUSH1 0x1 SLOAD DUP2 JUMP JUMPDEST PUSH2 0xEB DUP3 DUP3 PUSH2 0xF5 JUMP JUMPDEST PUSH1 0x1 DUP2 SWAP1 SSTORE POP POP POP JUMP JUMPDEST PUSH0 DUP1 DUP3 DUP5 PUSH2 0x103 SWAP2 SWAP1 PUSH2 0x1D9 JUMP JUMPDEST SWAP1 POP DUP1 SWAP2 POP POP SWAP3 SWAP2 POP POP JUMP JUMPDEST PUSH0 DUP2 SWAP1 POP SWAP2 SWAP1 POP JUMP JUMPDEST PUSH2 0x121 DUP2 PUSH2 0x10F JUMP JUMPDEST DUP3 MSTORE POP POP JUMP JUMPDEST PUSH0 PUSH1 0x20 DUP3 ADD SWAP1 POP PUSH2 0x13A PUSH0 DUP4 ADD DUP5 PUSH2 0x118 JUMP JUMPDEST SWAP3 SWAP2 POP POP JUMP JUMPDEST PUSH0 DUP1 REVERT JUMPDEST PUSH2 0x14D DUP2 PUSH2 0x10F JUMP JUMPDEST DUP2 EQ PUSH2 0x157 JUMPI PUSH0 DUP1 REVERT JUMPDEST POP JUMP JUMPDEST PUSH0 DUP2 CALLDATALOAD SWAP1 POP PUSH2 0x168 DUP2 PUSH2 0x144 JUMP JUMPDEST SWAP3 SWAP2 POP POP JUMP JUMPDEST PUSH0 DUP1 PUSH1 0x40 DUP4 DUP6 SUB SLT ISZERO PUSH2 0x184 JUMPI PUSH2 0x183 PUSH2 0x140 JUMP JUMPDEST JUMPDEST PUSH0 PUSH2 0x191 DUP6 DUP3 DUP7 ADD PUSH2 0x15A JUMP JUMPDEST SWAP3 POP POP PUSH1 0x20 PUSH2 0x1A2 DUP6 DUP3 DUP7 ADD PUSH2 0x15A JUMP JUMPDEST SWAP2 POP POP SWAP3 POP SWAP3 SWAP1 POP JUMP JUMPDEST PUSH32 0x4E487B7100000000000000000000000000000000000000000000000000000000 PUSH0 MSTORE PUSH1 0x11 PUSH1 0x4 MSTORE PUSH1 0x24 PUSH0 REVERT JUMPDEST PUSH0 PUSH2 0x1E3 DUP3 PUSH2 0x10F JUMP JUMPDEST SWAP2 POP PUSH2 0x1EE DUP4 PUSH2 0x10F JUMP JUMPDEST SWAP3 POP DUP3 DUP3 ADD SWAP1 POP DUP1 DUP3 GT ISZERO PUSH2 0x206 JUMPI PUSH2 0x205 PUSH2 0x1AC JUMP JUMPDEST JUMPDEST SWAP3 SWAP2 POP POP JUMP INVALID LOG2 PUSH5 0x6970667358 0x22 SLT KECCAK256 REVERT 0x23 0xBE 0x5C SHL 0xD5 0xED 0x2B STOP DUP13 0xDE 0xCF PUSH20 0x4757535B4D6A15B221279FAD39ECCDA483FC5064 PUSH20 0x6F6C634300081400330000000000000000000000 "
		},
		"gasEstimates": {
			"creation": {
				"codeDepositCost": "115600",
				"executionCost": "163",
				"totalCost": "115763"
			},
			"external": {
				"c()": "2425",
				"calculate1(uint256,uint256)": "infinite",
				"calculate2(uint256,uint256)": "infinite",
				"value()": "2402"
			}
		},
		"methodIdentifiers": {
			"c()": "c3da42b8",
			"calculate1(uint256,uint256)": "d5e26772",
			"calculate2(uint256,uint256)": "f104a3f8",
			"value()": "3fa4f245"
		}
	},
	"abi": [
		{
			"inputs": [],
			"name": "c",
			"outputs": [
				{
					"internalType": "uint256",
					"name": "",
					"type": "uint256"
				}
			],
			"stateMutability": "view",
			"type": "function"
		},
		{
			"inputs": [
				{
					"internalType": "uint256",
					"name": "a",
					"type": "uint256"
				},
				{
					"internalType": "uint256",
					"name": "b",
					"type": "uint256"
				}
			],
			"name": "calculate1",
			"outputs": [],
			"stateMutability": "nonpayable",
			"type": "function"
		},
		{
			"inputs": [
				{
					"internalType": "uint256",
					"name": "a",
					"type": "uint256"
				},
				{
					"internalType": "uint256",
					"name": "b",
					"type": "uint256"
				}
			],
			"name": "calculate2",
			"outputs": [
				{
					"internalType": "uint256",
					"name": "",
					"type": "uint256"
				}
			],
			"stateMutability": "pure",
			"type": "function"
		},
		{
			"inputs": [],
			"name": "value",
			"outputs": [
				{
					"internalType": "uint256",
					"name": "",
					"type": "uint256"
				}
			],
			"stateMutability": "view",
			"type": "function"
		}
	]
}