{
	"data": {
		"bytecode": {
			"linkReferences": {},
			"object": "6080604052485f55466001554160025f6101000a81548173ffffffffffffffffffffffffffffffffffffffff021916908373ffffffffffffffffffffffffffffffffffffffff160217905550426003553360045f6101000a81548173ffffffffffffffffffffffffffffffffffffffff021916908373ffffffffffffffffffffffffffffffffffffffff1602179055506103e86005556008600a600554620000a891906200018e565b620000b491906200018e565b6006556040518060400160405280600581526020017f457468657200000000000000000000000000000000000000000000000000000081525060079081620000fd919062000433565b506040518060400160405280600381526020017f45544800000000000000000000000000000000000000000000000000000000008152506008908162000144919062000433565b5034801562000151575f80fd5b5062000517565b5f819050919050565b7f4e487b71000000000000000000000000000000000000000000000000000000005f52601160045260245ffd5b5f6200019a8262000158565b9150620001a78362000158565b9250828202620001b78162000158565b91508282048414831517620001d157620001d062000161565b5b5092915050565b5f81519050919050565b7f4e487b71000000000000000000000000000000000000000000000000000000005f52604160045260245ffd5b7f4e487b71000000000000000000000000000000000000000000000000000000005f52602260045260245ffd5b5f60028204905060018216806200025457607f821691505b6020821081036200026a57620002696200020f565b5b50919050565b5f819050815f5260205f209050919050565b5f6020601f8301049050919050565b5f82821b905092915050565b5f60088302620002ce7fffffffffffffffffffffffffffffffffffffffffffffffffffffffffffffffff8262000291565b620002da868362000291565b95508019841693508086168417925050509392505050565b5f819050919050565b5f6200031b620003156200030f8462000158565b620002f2565b62000158565b9050919050565b5f819050919050565b6200033683620002fb565b6200034e620003458262000322565b8484546200029d565b825550505050565b5f90565b6200036462000356565b620003718184846200032b565b505050565b5b8181101562000398576200038c5f826200035a565b60018101905062000377565b5050565b601f821115620003e757620003b18162000270565b620003bc8462000282565b81016020851015620003cc578190505b620003e4620003db8562000282565b83018262000376565b50505b505050565b5f82821c905092915050565b5f620004095f1984600802620003ec565b1980831691505092915050565b5f620004238383620003f8565b9150826002028217905092915050565b6200043e82620001d8565b67ffffffffffffffff8111156200045a5762000459620001e2565b5b6200046682546200023c565b620004738282856200039c565b5f60209050601f831160018114620004a9575f841562000494578287015190505b620004a0858262000416565b8655506200050f565b601f198416620004b98662000270565b5f5b82811015620004e257848901518255600182019150602085019450602081019050620004bb565b86831015620005025784890151620004fe601f891682620003f8565b8355505b6001600288020188555050505b505050505050565b6104e880620005255f395ff3fe608060405234801561000f575f80fd5b5060043610610091575f3560e01c80637b61c320116100645780637b61c3201461010d578063ba95fabb1461012b578063e7badf5d14610149578063e810c38f14610167578063f7abab9e1461018557610091565b80634daedf2c146100955780635caed029146100b35780636c02a931146100d15780636cffd71f146100ef575b5f80fd5b61009d6101a3565b6040516100aa9190610361565b60405180910390f35b6100bb6101c8565b6040516100c89190610392565b60405180910390f35b6100d96101ce565b6040516100e69190610435565b60405180910390f35b6100f761025a565b6040516101049190610392565b60405180910390f35b610115610260565b6040516101229190610435565b60405180910390f35b6101336102ec565b6040516101409190610361565b60405180910390f35b610151610311565b60405161015e9190610392565b60405180910390f35b61016f610316565b60405161017c9190610392565b60405180910390f35b61018d61031c565b60405161019a9190610392565b60405180910390f35b60045f9054906101000a900473ffffffffffffffffffffffffffffffffffffffff1681565b60065481565b600780546101db90610482565b80601f016020809104026020016040519081016040528092919081815260200182805461020790610482565b80156102525780601f1061022957610100808354040283529160200191610252565b820191905f5260205f20905b81548152906001019060200180831161023557829003601f168201915b505050505081565b60015481565b6008805461026d90610482565b80601f016020809104026020016040519081016040528092919081815260200182805461029990610482565b80156102e45780601f106102bb576101008083540402835291602001916102e4565b820191905f5260205f20905b8154815290600101906020018083116102c757829003601f168201915b505050505081565b60025f9054906101000a900473ffffffffffffffffffffffffffffffffffffffff1681565b5f5481565b60035481565b60055481565b5f73ffffffffffffffffffffffffffffffffffffffff82169050919050565b5f61034b82610322565b9050919050565b61035b81610341565b82525050565b5f6020820190506103745f830184610352565b92915050565b5f819050919050565b61038c8161037a565b82525050565b5f6020820190506103a55f830184610383565b92915050565b5f81519050919050565b5f82825260208201905092915050565b5f5b838110156103e25780820151818401526020810190506103c7565b5f8484015250505050565b5f601f19601f8301169050919050565b5f610407826103ab565b61041181856103b5565b93506104218185602086016103c5565b61042a816103ed565b840191505092915050565b5f6020820190508181035f83015261044d81846103fd565b905092915050565b7f4e487b71000000000000000000000000000000000000000000000000000000005f52602260045260245ffd5b5f600282049050600182168061049957607f821691505b6020821081036104ac576104ab610455565b5b5091905056fea2646970667358221220c5acc46dba5b37706f2b99cc3b2e5f6facfe2185675028c9b0a0778de03a275d64736f6c63430008140033",
			"opcodes": "PUSH1 0x80 PUSH1 0x40 MSTORE BASEFEE PUSH0 SSTORE CHAINID PUSH1 0x1 SSTORE COINBASE PUSH1 0x2 PUSH0 PUSH2 0x100 EXP DUP2 SLOAD DUP2 PUSH20 0xFFFFFFFFFFFFFFFFFFFFFFFFFFFFFFFFFFFFFFFF MUL NOT AND SWAP1 DUP4 PUSH20 0xFFFFFFFFFFFFFFFFFFFFFFFFFFFFFFFFFFFFFFFF AND MUL OR SWAP1 SSTORE POP TIMESTAMP PUSH1 0x3 SSTORE CALLER PUSH1 0x4 PUSH0 PUSH2 0x100 EXP DUP2 SLOAD DUP2 PUSH20 0xFFFFFFFFFFFFFFFFFFFFFFFFFFFFFFFFFFFFFFFF MUL NOT AND SWAP1 DUP4 PUSH20 0xFFFFFFFFFFFFFFFFFFFFFFFFFFFFFFFFFFFFFFFF AND MUL OR SWAP1 SSTORE POP PUSH2 0x3E8 PUSH1 0x5 SSTORE PUSH1 0x8 PUSH1 0xA PUSH1 0x5 SLOAD PUSH3 0xA8 SWAP2 SWAP1 PUSH3 0x18E JUMP JUMPDEST PUSH3 0xB4 SWAP2 SWAP1 PUSH3 0x18E JUMP JUMPDEST PUSH1 0x6 SSTORE PUSH1 0x40 MLOAD DUP1 PUSH1 0x40 ADD PUSH1 0x40 MSTORE DUP1 PUSH1 0x5 DUP2 MSTORE PUSH1 0x20 ADD PUSH32 0x4574686572000000000000000000000000000000000000000000000000000000 DUP2 MSTORE POP PUSH1 0x7 SWAP1 DUP2 PUSH3 0xFD SWAP2 SWAP1 PUSH3 0x433 JUMP JUMPDEST POP PUSH1 0x40 MLOAD DUP1 PUSH1 0x40 ADD PUSH1 0x40 MSTORE DUP1 PUSH1 0x3 DUP2 MSTORE PUSH1 0x20 ADD PUSH32 0x4554480000000000000000000000000000000000000000000000000000000000 DUP2 MSTORE POP PUSH1 0x8 SWAP1 DUP2 PUSH3 0x144 SWAP2 SWAP1 PUSH3 0x433 JUMP JUMPDEST POP CALLVALUE DUP1 ISZERO PUSH3 0x151 JUMPI PUSH0 DUP1 REVERT JUMPDEST POP PUSH3 0x517 JUMP JUMPDEST PUSH0 DUP2 SWAP1 POP SWAP2 SWAP1 POP JUMP JUMPDEST PUSH32 0x4E487B7100000000000000000000000000000000000000000000000000000000 PUSH0 MSTORE PUSH1 0x11 PUSH1 0x4 MSTORE PUSH1 0x24 PUSH0 REVERT JUMPDEST PUSH0 PUSH3 0x19A DUP3 PUSH3 0x158 JUMP JUMPDEST SWAP2 POP PUSH3 0x1A7 DUP4 PUSH3 0x158 JUMP JUMPDEST SWAP3 POP DUP3 DUP3 MUL PUSH3 0x1B7 DUP2 PUSH3 0x158 JUMP JUMPDEST SWAP2 POP DUP3 DUP3 DIV DUP5 EQ DUP4 ISZERO OR PUSH3 0x1D1 JUMPI PUSH3 0x1D0 PUSH3 0x161 JUMP JUMPDEST JUMPDEST POP SWAP3 SWAP2 POP POP JUMP JUMPDEST PUSH0 DUP2 MLOAD SWAP1 POP SWAP2 SWAP1 POP JUMP JUMPDEST PUSH32 0x4E487B7100000000000000000000000000000000000000000000000000000000 PUSH0 MSTORE PUSH1 0x41 PUSH1 0x4 MSTORE PUSH1 0x24 PUSH0 REVERT JUMPDEST PUSH32 0x4E487B7100000000000000000000000000000000000000000000000000000000 PUSH0 MSTORE PUSH1 0x22 PUSH1 0x4 MSTORE PUSH1 0x24 PUSH0 REVERT JUMPDEST PUSH0 PUSH1 0x2 DUP3 DIV SWAP1 POP PUSH1 0x1 DUP3 AND DUP1 PUSH3 0x254 JUMPI PUSH1 0x7F DUP3 AND SWAP2 POP JUMPDEST PUSH1 0x20 DUP3 LT DUP2 SUB PUSH3 0x26A JUMPI PUSH3 0x269 PUSH3 0x20F JUMP JUMPDEST JUMPDEST POP SWAP2 SWAP1 POP JUMP JUMPDEST PUSH0 DUP2 SWAP1 POP DUP2 PUSH0 MSTORE PUSH1 0x20 PUSH0 KECCAK256 SWAP1 POP SWAP2 SWAP1 POP JUMP JUMPDEST PUSH0 PUSH1 0x20 PUSH1 0x1F DUP4 ADD DIV SWAP1 POP SWAP2 SWAP1 POP JUMP JUMPDEST PUSH0 DUP3 DUP3 SHL SWAP1 POP SWAP3 SWAP2 POP POP JUMP JUMPDEST PUSH0 PUSH1 0x8 DUP4 MUL PUSH3 0x2CE PUSH32 0xFFFFFFFFFFFFFFFFFFFFFFFFFFFFFFFFFFFFFFFFFFFFFFFFFFFFFFFFFFFFFFFF DUP3 PUSH3 0x291 JUMP JUMPDEST PUSH3 0x2DA DUP7 DUP4 PUSH3 0x291 JUMP JUMPDEST SWAP6 POP DUP1 NOT DUP5 AND SWAP4 POP DUP1 DUP7 AND DUP5 OR SWAP3 POP POP POP SWAP4 SWAP3 POP POP POP JUMP JUMPDEST PUSH0 DUP2 SWAP1 POP SWAP2 SWAP1 POP JUMP JUMPDEST PUSH0 PUSH3 0x31B PUSH3 0x315 PUSH3 0x30F DUP5 PUSH3 0x158 JUMP JUMPDEST PUSH3 0x2F2 JUMP JUMPDEST PUSH3 0x158 JUMP JUMPDEST SWAP1 POP SWAP2 SWAP1 POP JUMP JUMPDEST PUSH0 DUP2 SWAP1 POP SWAP2 SWAP1 POP JUMP JUMPDEST PUSH3 0x336 DUP4 PUSH3 0x2FB JUMP JUMPDEST PUSH3 0x34E PUSH3 0x345 DUP3 PUSH3 0x322 JUMP JUMPDEST DUP5 DUP5 SLOAD PUSH3 0x29D JUMP JUMPDEST DUP3 SSTORE POP POP POP POP JUMP JUMPDEST PUSH0 SWAP1 JUMP JUMPDEST PUSH3 0x364 PUSH3 0x356 JUMP JUMPDEST PUSH3 0x371 DUP2 DUP5 DUP5 PUSH3 0x32B JUMP JUMPDEST POP POP POP JUMP JUMPDEST JUMPDEST DUP2 DUP2 LT ISZERO PUSH3 0x398 JUMPI PUSH3 0x38C PUSH0 DUP3 PUSH3 0x35A JUMP JUMPDEST PUSH1 0x1 DUP2 ADD SWAP1 POP PUSH3 0x377 JUMP JUMPDEST POP POP JUMP JUMPDEST PUSH1 0x1F DUP3 GT ISZERO PUSH3 0x3E7 JUMPI PUSH3 0x3B1 DUP2 PUSH3 0x270 JUMP JUMPDEST PUSH3 0x3BC DUP5 PUSH3 0x282 JUMP JUMPDEST DUP2 ADD PUSH1 0x20 DUP6 LT ISZERO PUSH3 0x3CC JUMPI DUP2 SWAP1 POP JUMPDEST PUSH3 0x3E4 PUSH3 0x3DB DUP6 PUSH3 0x282 JUMP JUMPDEST DUP4 ADD DUP3 PUSH3 0x376 JUMP JUMPDEST POP POP JUMPDEST POP POP POP JUMP JUMPDEST PUSH0 DUP3 DUP3 SHR SWAP1 POP SWAP3 SWAP2 POP POP JUMP JUMPDEST PUSH0 PUSH3 0x409 PUSH0 NOT DUP5 PUSH1 0x8 MUL PUSH3 0x3EC JUMP JUMPDEST NOT DUP1 DUP4 AND SWAP2 POP POP SWAP3 SWAP2 POP POP JUMP JUMPDEST PUSH0 PUSH3 0x423 DUP4 DUP4 PUSH3 0x3F8 JUMP JUMPDEST SWAP2 POP DUP3 PUSH1 0x2 MUL DUP3 OR SWAP1 POP SWAP3 SWAP2 POP POP JUMP JUMPDEST PUSH3 0x43E DUP3 PUSH3 0x1D8 JUMP JUMPDEST PUSH8 0xFFFFFFFFFFFFFFFF DUP2 GT ISZERO PUSH3 0x45A JUMPI PUSH3 0x459 PUSH3 0x1E2 JUMP JUMPDEST JUMPDEST PUSH3 0x466 DUP3 SLOAD PUSH3 0x23C JUMP JUMPDEST PUSH3 0x473 DUP3 DUP3 DUP6 PUSH3 0x39C JUMP JUMPDEST PUSH0 PUSH1 0x20 SWAP1 POP PUSH1 0x1F DUP4 GT PUSH1 0x1 DUP2 EQ PUSH3 0x4A9 JUMPI PUSH0 DUP5 ISZERO PUSH3 0x494 JUMPI DUP3 DUP8 ADD MLOAD SWAP1 POP JUMPDEST PUSH3 0x4A0 DUP6 DUP3 PUSH3 0x416 JUMP JUMPDEST DUP7 SSTORE POP PUSH3 0x50F JUMP JUMPDEST PUSH1 0x1F NOT DUP5 AND PUSH3 0x4B9 DUP7 PUSH3 0x270 JUMP JUMPDEST PUSH0 JUMPDEST DUP3 DUP2 LT ISZERO PUSH3 0x4E2 JUMPI DUP5 DUP10 ADD MLOAD DUP3 SSTORE PUSH1 0x1 DUP3 ADD SWAP2 POP PUSH1 0x20 DUP6 ADD SWAP5 POP PUSH1 0x20 DUP2 ADD SWAP1 POP PUSH3 0x4BB JUMP JUMPDEST DUP7 DUP4 LT ISZERO PUSH3 0x502 JUMPI DUP5 DUP10 ADD MLOAD PUSH3 0x4FE PUSH1 0x1F DUP10 AND DUP3 PUSH3 0x3F8 JUMP JUMPDEST DUP4 SSTORE POP JUMPDEST PUSH1 0x1 PUSH1 0x2 DUP9 MUL ADD DUP9 SSTORE POP POP POP JUMPDEST POP POP POP POP POP POP JUMP JUMPDEST PUSH2 0x4E8 DUP1 PUSH3 0x525 PUSH0 CODECOPY PUSH0 RETURN INVALID PUSH1 0x80 PUSH1 0x40 MSTORE CALLVALUE DUP1 ISZERO PUSH2 0xF JUMPI PUSH0 DUP1 REVERT JUMPDEST POP PUSH1 0x4 CALLDATASIZE LT PUSH2 0x91 JUMPI PUSH0 CALLDATALOAD PUSH1 0xE0 SHR DUP1 PUSH4 0x7B61C320 GT PUSH2 0x64 JUMPI DUP1 PUSH4 0x7B61C320 EQ PUSH2 0x10D JUMPI DUP1 PUSH4 0xBA95FABB EQ PUSH2 0x12B JUMPI DUP1 PUSH4 0xE7BADF5D EQ PUSH2 0x149 JUMPI DUP1 PUSH4 0xE810C38F EQ PUSH2 0x167 JUMPI DUP1 PUSH4 0xF7ABAB9E EQ PUSH2 0x185 JUMPI PUSH2 0x91 JUMP JUMPDEST DUP1 PUSH4 0x4DAEDF2C EQ PUSH2 0x95 JUMPI DUP1 PUSH4 0x5CAED029 EQ PUSH2 0xB3 JUMPI DUP1 PUSH4 0x6C02A931 EQ PUSH2 0xD1 JUMPI DUP1 PUSH4 0x6CFFD71F EQ PUSH2 0xEF JUMPI JUMPDEST PUSH0 DUP1 REVERT JUMPDEST PUSH2 0x9D PUSH2 0x1A3 JUMP JUMPDEST PUSH1 0x40 MLOAD PUSH2 0xAA SWAP2 SWAP1 PUSH2 0x361 JUMP JUMPDEST PUSH1 0x40 MLOAD DUP1 SWAP2 SUB SWAP1 RETURN JUMPDEST PUSH2 0xBB PUSH2 0x1C8 JUMP JUMPDEST PUSH1 0x40 MLOAD PUSH2 0xC8 SWAP2 SWAP1 PUSH2 0x392 JUMP JUMPDEST PUSH1 0x40 MLOAD DUP1 SWAP2 SUB SWAP1 RETURN JUMPDEST PUSH2 0xD9 PUSH2 0x1CE JUMP JUMPDEST PUSH1 0x40 MLOAD PUSH2 0xE6 SWAP2 SWAP1 PUSH2 0x435 JUMP JUMPDEST PUSH1 0x40 MLOAD DUP1 SWAP2 SUB SWAP1 RETURN JUMPDEST PUSH2 0xF7 PUSH2 0x25A JUMP JUMPDEST PUSH1 0x40 MLOAD PUSH2 0x104 SWAP2 SWAP1 PUSH2 0x392 JUMP JUMPDEST PUSH1 0x40 MLOAD DUP1 SWAP2 SUB SWAP1 RETURN JUMPDEST PUSH2 0x115 PUSH2 0x260 JUMP JUMPDEST PUSH1 0x40 MLOAD PUSH2 0x122 SWAP2 SWAP1 PUSH2 0x435 JUMP JUMPDEST PUSH1 0x40 MLOAD DUP1 SWAP2 SUB SWAP1 RETURN JUMPDEST PUSH2 0x133 PUSH2 0x2EC JUMP JUMPDEST PUSH1 0x40 MLOAD PUSH2 0x140 SWAP2 SWAP1 PUSH2 0x361 JUMP JUMPDEST PUSH1 0x40 MLOAD DUP1 SWAP2 SUB SWAP1 RETURN JUMPDEST PUSH2 0x151 PUSH2 0x311 JUMP JUMPDEST PUSH1 0x40 MLOAD PUSH2 0x15E SWAP2 SWAP1 PUSH2 0x392 JUMP JUMPDEST PUSH1 0x40 MLOAD DUP1 SWAP2 SUB SWAP1 RETURN JUMPDEST PUSH2 0x16F PUSH2 0x316 JUMP JUMPDEST PUSH1 0x40 MLOAD PUSH2 0x17C SWAP2 SWAP1 PUSH2 0x392 JUMP JUMPDEST PUSH1 0x40 MLOAD DUP1 SWAP2 SUB SWAP1 RETURN JUMPDEST PUSH2 0x18D PUSH2 0x31C JUMP JUMPDEST PUSH1 0x40 MLOAD PUSH2 0x19A SWAP2 SWAP1 PUSH2 0x392 JUMP JUMPDEST PUSH1 0x40 MLOAD DUP1 SWAP2 SUB SWAP1 RETURN JUMPDEST PUSH1 0x4 PUSH0 SWAP1 SLOAD SWAP1 PUSH2 0x100 EXP SWAP1 DIV PUSH20 0xFFFFFFFFFFFFFFFFFFFFFFFFFFFFFFFFFFFFFFFF AND DUP2 JUMP JUMPDEST PUSH1 0x6 SLOAD DUP2 JUMP JUMPDEST PUSH1 0x7 DUP1 SLOAD PUSH2 0x1DB SWAP1 PUSH2 0x482 JUMP JUMPDEST DUP1 PUSH1 0x1F ADD PUSH1 0x20 DUP1 SWAP2 DIV MUL PUSH1 0x20 ADD PUSH1 0x40 MLOAD SWAP1 DUP2 ADD PUSH1 0x40 MSTORE DUP1 SWAP3 SWAP2 SWAP1 DUP2 DUP2 MSTORE PUSH1 0x20 ADD DUP3 DUP1 SLOAD PUSH2 0x207 SWAP1 PUSH2 0x482 JUMP JUMPDEST DUP1 ISZERO PUSH2 0x252 JUMPI DUP1 PUSH1 0x1F LT PUSH2 0x229 JUMPI PUSH2 0x100 DUP1 DUP4 SLOAD DIV MUL DUP4 MSTORE SWAP2 PUSH1 0x20 ADD SWAP2 PUSH2 0x252 JUMP JUMPDEST DUP3 ADD SWAP2 SWAP1 PUSH0 MSTORE PUSH1 0x20 PUSH0 KECCAK256 SWAP1 JUMPDEST DUP2 SLOAD DUP2 MSTORE SWAP1 PUSH1 0x1 ADD SWAP1 PUSH1 0x20 ADD DUP1 DUP4 GT PUSH2 0x235 JUMPI DUP3 SWAP1 SUB PUSH1 0x1F AND DUP3 ADD SWAP2 JUMPDEST POP POP POP POP POP DUP2 JUMP JUMPDEST PUSH1 0x1 SLOAD DUP2 JUMP JUMPDEST PUSH1 0x8 DUP1 SLOAD PUSH2 0x26D SWAP1 PUSH2 0x482 JUMP JUMPDEST DUP1 PUSH1 0x1F ADD PUSH1 0x20 DUP1 SWAP2 DIV MUL PUSH1 0x20 ADD PUSH1 0x40 MLOAD SWAP1 DUP2 ADD PUSH1 0x40 MSTORE DUP1 SWAP3 SWAP2 SWAP1 DUP2 DUP2 MSTORE PUSH1 0x20 ADD DUP3 DUP1 SLOAD PUSH2 0x299 SWAP1 PUSH2 0x482 JUMP JUMPDEST DUP1 ISZERO PUSH2 0x2E4 JUMPI DUP1 PUSH1 0x1F LT PUSH2 0x2BB JUMPI PUSH2 0x100 DUP1 DUP4 SLOAD DIV MUL DUP4 MSTORE SWAP2 PUSH1 0x20 ADD SWAP2 PUSH2 0x2E4 JUMP JUMPDEST DUP3 ADD SWAP2 SWAP1 PUSH0 MSTORE PUSH1 0x20 PUSH0 KECCAK256 SWAP1 JUMPDEST DUP2 SLOAD DUP2 MSTORE SWAP1 PUSH1 0x1 ADD SWAP1 PUSH1 0x20 ADD DUP1 DUP4 GT PUSH2 0x2C7 JUMPI DUP3 SWAP1 SUB PUSH1 0x1F AND DUP3 ADD SWAP2 JUMPDEST POP POP POP POP POP DUP2 JUMP JUMPDEST PUSH1 0x2 PUSH0 SWAP1 SLOAD SWAP1 PUSH2 0x100 EXP SWAP1 DIV PUSH20 0xFFFFFFFFFFFFFFFFFFFFFFFFFFFFFFFFFFFFFFFF AND DUP2 JUMP JUMPDEST PUSH0 SLOAD DUP2 JUMP JUMPDEST PUSH1 0x3 SLOAD DUP2 JUMP JUMPDEST PUSH1 0x5 SLOAD DUP2 JUMP JUMPDEST PUSH0 PUSH20 0xFFFFFFFFFFFFFFFFFFFFFFFFFFFFFFFFFFFFFFFF DUP3 AND SWAP1 POP SWAP2 SWAP1 POP JUMP JUMPDEST PUSH0 PUSH2 0x34B DUP3 PUSH2 0x322 JUMP JUMPDEST SWAP1 POP SWAP2 SWAP1 POP JUMP JUMPDEST PUSH2 0x35B DUP2 PUSH2 0x341 JUMP JUMPDEST DUP3 MSTORE POP POP JUMP JUMPDEST PUSH0 PUSH1 0x20 DUP3 ADD SWAP1 POP PUSH2 0x374 PUSH0 DUP4 ADD DUP5 PUSH2 0x352 JUMP JUMPDEST SWAP3 SWAP2 POP POP JUMP JUMPDEST PUSH0 DUP2 SWAP1 POP SWAP2 SWAP1 POP JUMP JUMPDEST PUSH2 0x38C DUP2 PUSH2 0x37A JUMP JUMPDEST DUP3 MSTORE POP POP JUMP JUMPDEST PUSH0 PUSH1 0x20 DUP3 ADD SWAP1 POP PUSH2 0x3A5 PUSH0 DUP4 ADD DUP5 PUSH2 0x383 JUMP JUMPDEST SWAP3 SWAP2 POP POP JUMP JUMPDEST PUSH0 DUP2 MLOAD SWAP1 POP SWAP2 SWAP1 POP JUMP JUMPDEST PUSH0 DUP3 DUP3 MSTORE PUSH1 0x20 DUP3 ADD SWAP1 POP SWAP3 SWAP2 POP POP JUMP JUMPDEST PUSH0 JUMPDEST DUP4 DUP2 LT ISZERO PUSH2 0x3E2 JUMPI DUP1 DUP3 ADD MLOAD DUP2 DUP5 ADD MSTORE PUSH1 0x20 DUP2 ADD SWAP1 POP PUSH2 0x3C7 JUMP JUMPDEST PUSH0 DUP5 DUP5 ADD MSTORE POP POP POP POP JUMP JUMPDEST PUSH0 PUSH1 0x1F NOT PUSH1 0x1F DUP4 ADD AND SWAP1 POP SWAP2 SWAP1 POP JUMP JUMPDEST PUSH0 PUSH2 0x407 DUP3 PUSH2 0x3AB JUMP JUMPDEST PUSH2 0x411 DUP2 DUP6 PUSH2 0x3B5 JUMP JUMPDEST SWAP4 POP PUSH2 0x421 DUP2 DUP6 PUSH1 0x20 DUP7 ADD PUSH2 0x3C5 JUMP JUMPDEST PUSH2 0x42A DUP2 PUSH2 0x3ED JUMP JUMPDEST DUP5 ADD SWAP2 POP POP SWAP3 SWAP2 POP POP JUMP JUMPDEST PUSH0 PUSH1 0x20 DUP3 ADD SWAP1 POP DUP2 DUP2 SUB PUSH0 DUP4 ADD MSTORE PUSH2 0x44D DUP2 DUP5 PUSH2 0x3FD JUMP JUMPDEST SWAP1 POP SWAP3 SWAP2 POP POP JUMP JUMPDEST PUSH32 0x4E487B7100000000000000000000000000000000000000000000000000000000 PUSH0 MSTORE PUSH1 0x22 PUSH1 0x4 MSTORE PUSH1 0x24 PUSH0 REVERT JUMPDEST PUSH0 PUSH1 0x2 DUP3 DIV SWAP1 POP PUSH1 0x1 DUP3 AND DUP1 PUSH2 0x499 JUMPI PUSH1 0x7F DUP3 AND SWAP2 POP JUMPDEST PUSH1 0x20 DUP3 LT DUP2 SUB PUSH2 0x4AC JUMPI PUSH2 0x4AB PUSH2 0x455 JUMP JUMPDEST JUMPDEST POP SWAP2 SWAP1 POP JUMP INVALID LOG2 PUSH5 0x6970667358 0x22 SLT KECCAK256 0xC5 0xAC 0xC4 PUSH14 0xBA5B37706F2B99CC3B2E5F6FACFE 0x21 DUP6 PUSH8 0x5028C9B0A0778DE0 GASPRICE 0x27 0x5D PUSH5 0x736F6C6343 STOP ADDMOD EQ STOP CALLER "
		},
		"gasEstimates": {
			"creation": {
				"codeDepositCost": "251200",
				"executionCost": "infinite",
				"totalCost": "infinite"
			},
			"external": {
				"_block_basefee()": "2468",
				"_block_chainid()": "2492",
				"_block_coinbase()": "2530",
				"_block_timestamp()": "2491",
				"_msg_sender()": "2509",
				"tokenDecimal()": "2448",
				"tokenName()": "infinite",
				"tokenSymbol()": "infinite",
				"tokenTotalSupply()": "2513"
			}
		},
		"methodIdentifiers": {
			"_block_basefee()": "e7badf5d",
			"_block_chainid()": "6cffd71f",
			"_block_coinbase()": "ba95fabb",
			"_block_timestamp()": "e810c38f",
			"_msg_sender()": "4daedf2c",
			"tokenDecimal()": "5caed029",
			"tokenName()": "6c02a931",
			"tokenSymbol()": "7b61c320",
			"tokenTotalSupply()": "f7abab9e"
		}
	},
	"abi": [
		{
			"inputs": [],
			"name": "_block_basefee",
			"outputs": [
				{
					"internalType": "uint256",
					"name": "",
					"type": "uint256"
				}
			],
			"stateMutability": "view",
			"type": "function"
		},
		{
			"inputs": [],
			"name": "_block_chainid",
			"outputs": [
				{
					"internalType": "uint256",
					"name": "",
					"type": "uint256"
				}
			],
			"stateMutability": "view",
			"type": "function"
		},
		{
			"inputs": [],
			"name": "_block_coinbase",
			"outputs": [
				{
					"internalType": "address",
					"name": "",
					"type": "address"
				}
			],
			"stateMutability": "view",
			"type": "function"
		},
		{
			"inputs": [],
			"name": "_block_timestamp",
			"outputs": [
				{
					"internalType": "uint256",
					"name": "",
					"type": "uint256"
				}
			],
			"stateMutability": "view",
			"type": "function"
		},
		{
			"inputs": [],
			"name": "_msg_sender",
			"outputs": [
				{
					"internalType": "address",
					"name": "",
					"type": "address"
				}
			],
			"stateMutability": "view",
			"type": "function"
		},
		{
			"inputs": [],
			"name": "tokenDecimal",
			"outputs": [
				{
					"internalType": "uint256",
					"name": "",
					"type": "uint256"
				}
			],
			"stateMutability": "view",
			"type": "function"
		},
		{
			"inputs": [],
			"name": "tokenName",
			"outputs": [
				{
					"internalType": "string",
					"name": "",
					"type": "string"
				}
			],
			"stateMutability": "view",
			"type": "function"
		},
		{
			"inputs": [],
			"name": "tokenSymbol",
			"outputs": [
				{
					"internalType": "string",
					"name": "",
					"type": "string"
				}
			],
			"stateMutability": "view",
			"type": "function"
		},
		{
			"inputs": [],
			"name": "tokenTotalSupply",
			"outputs": [
				{
					"internalType": "uint256",
					"name": "",
					"type": "uint256"
				}
			],
			"stateMutability": "view",
			"type": "function"
		}
	]
}