{
	"code/1_view.sol": {
		"ExampleContract": {
			"abi": [
				{
					"inputs": [],
					"name": "c",
					"outputs": [
						{
							"internalType": "uint256",
							"name": "",
							"type": "uint256"
						}
					],
					"stateMutability": "view",
					"type": "function"
				},
				{
					"inputs": [
						{
							"internalType": "uint256",
							"name": "a",
							"type": "uint256"
						},
						{
							"internalType": "uint256",
							"name": "b",
							"type": "uint256"
						}
					],
					"name": "calculate1",
					"outputs": [],
					"stateMutability": "nonpayable",
					"type": "function"
				},
				{
					"inputs": [
						{
							"internalType": "uint256",
							"name": "a",
							"type": "uint256"
						},
						{
							"internalType": "uint256",
							"name": "b",
							"type": "uint256"
						}
					],
					"name": "calculate2",
					"outputs": [
						{
							"internalType": "uint256",
							"name": "",
							"type": "uint256"
						}
					],
					"stateMutability": "view",
					"type": "function"
				},
				{
					"inputs": [],
					"name": "d",
					"outputs": [
						{
							"internalType": "uint256",
							"name": "",
							"type": "uint256"
						}
					],
					"stateMutability": "view",
					"type": "function"
				},
				{
					"inputs": [],
					"name": "value",
					"outputs": [
						{
							"internalType": "uint256",
							"name": "",
							"type": "uint256"
						}
					],
					"stateMutability": "view",
					"type": "function"
				}
			],
			"devdoc": {
				"kind": "dev",
				"methods": {},
				"version": 1
			},
			"evm": {
				"assembly": "    /* \"code/1_view.sol\":64:367  contract ExampleContract {... */\n  mstore(0x40, 0x80)\n  callvalue\n  dup1\n  iszero\n  tag_1\n  jumpi\n  0x00\n  dup1\n  revert\ntag_1:\n  pop\n  dataSize(sub_0)\n  dup1\n  dataOffset(sub_0)\n  0x00\n  codecopy\n  0x00\n  return\nstop\n\nsub_0: assembly {\n        /* \"code/1_view.sol\":64:367  contract ExampleContract {... */\n      mstore(0x40, 0x80)\n      callvalue\n      dup1\n      iszero\n      tag_1\n      jumpi\n      0x00\n      dup1\n      revert\n    tag_1:\n      pop\n      jumpi(tag_2, lt(calldatasize, 0x04))\n      shr(0xe0, calldataload(0x00))\n      dup1\n      0x3fa4f245\n      eq\n      tag_3\n      jumpi\n      dup1\n      0x8a054ac2\n      eq\n      tag_4\n      jumpi\n      dup1\n      0xc3da42b8\n      eq\n      tag_5\n      jumpi\n      dup1\n      0xd5e26772\n      eq\n      tag_6\n      jumpi\n      dup1\n      0xf104a3f8\n      eq\n      tag_7\n      jumpi\n    tag_2:\n      0x00\n      dup1\n      revert\n        /* \"code/1_view.sol\":95:112  uint public value */\n    tag_3:\n      tag_8\n      tag_9\n      jump\t// in\n    tag_8:\n      mload(0x40)\n      tag_10\n      swap2\n      swap1\n      tag_11\n      jump\t// in\n    tag_10:\n      mload(0x40)\n      dup1\n      swap2\n      sub\n      swap1\n      return\n        /* \"code/1_view.sol\":137:150  uint public d */\n    tag_4:\n      tag_12\n      tag_13\n      jump\t// in\n    tag_12:\n      mload(0x40)\n      tag_14\n      swap2\n      swap1\n      tag_11\n      jump\t// in\n    tag_14:\n      mload(0x40)\n      dup1\n      swap2\n      sub\n      swap1\n      return\n        /* \"code/1_view.sol\":118:131  uint public c */\n    tag_5:\n      tag_15\n      tag_16\n      jump\t// in\n    tag_15:\n      mload(0x40)\n      tag_17\n      swap2\n      swap1\n      tag_11\n      jump\t// in\n    tag_17:\n      mload(0x40)\n      dup1\n      swap2\n      sub\n      swap1\n      return\n        /* \"code/1_view.sol\":285:365  function calculate1(uint a, uint b) public {... */\n    tag_6:\n      tag_18\n      0x04\n      dup1\n      calldatasize\n      sub\n      dup2\n      add\n      swap1\n      tag_19\n      swap2\n      swap1\n      tag_20\n      jump\t// in\n    tag_19:\n      tag_21\n      jump\t// in\n    tag_18:\n      stop\n        /* \"code/1_view.sol\":157:279  function calculate2(uint a, uint b) public view returns (uint) {... */\n    tag_7:\n      tag_22\n      0x04\n      dup1\n      calldatasize\n      sub\n      dup2\n      add\n      swap1\n      tag_23\n      swap2\n      swap1\n      tag_20\n      jump\t// in\n    tag_23:\n      tag_24\n      jump\t// in\n    tag_22:\n      mload(0x40)\n      tag_25\n      swap2\n      swap1\n      tag_11\n      jump\t// in\n    tag_25:\n      mload(0x40)\n      dup1\n      swap2\n      sub\n      swap1\n      return\n        /* \"code/1_view.sol\":95:112  uint public value */\n    tag_9:\n      sload(0x00)\n      dup2\n      jump\t// out\n        /* \"code/1_view.sol\":137:150  uint public d */\n    tag_13:\n      sload(0x02)\n      dup2\n      jump\t// out\n        /* \"code/1_view.sol\":118:131  uint public c */\n    tag_16:\n      sload(0x01)\n      dup2\n      jump\t// out\n        /* \"code/1_view.sol\":285:365  function calculate1(uint a, uint b) public {... */\n    tag_21:\n        /* \"code/1_view.sol\":342:358  calculate2(a, b) */\n      tag_27\n        /* \"code/1_view.sol\":353:354  a */\n      dup3\n        /* \"code/1_view.sol\":356:357  b */\n      dup3\n        /* \"code/1_view.sol\":342:352  calculate2 */\n      tag_24\n        /* \"code/1_view.sol\":342:358  calculate2(a, b) */\n      jump\t// in\n    tag_27:\n        /* \"code/1_view.sol\":338:339  c */\n      0x01\n        /* \"code/1_view.sol\":338:358  c = calculate2(a, b) */\n      dup2\n      swap1\n      sstore\n      pop\n        /* \"code/1_view.sol\":285:365  function calculate1(uint a, uint b) public {... */\n      pop\n      pop\n      jump\t// out\n        /* \"code/1_view.sol\":157:279  function calculate2(uint a, uint b) public view returns (uint) {... */\n    tag_24:\n        /* \"code/1_view.sol\":214:218  uint */\n      0x00\n        /* \"code/1_view.sol\":230:241  uint result */\n      dup1\n        /* \"code/1_view.sol\":248:249  b */\n      dup3\n        /* \"code/1_view.sol\":244:245  a */\n      dup5\n        /* \"code/1_view.sol\":244:249  a + b */\n      tag_29\n      swap2\n      swap1\n      tag_30\n      jump\t// in\n    tag_29:\n        /* \"code/1_view.sol\":230:249  uint result = a + b */\n      swap1\n      pop\n        /* \"code/1_view.sol\":266:272  result */\n      dup1\n        /* \"code/1_view.sol\":259:272  return result */\n      swap2\n      pop\n      pop\n        /* \"code/1_view.sol\":157:279  function calculate2(uint a, uint b) public view returns (uint) {... */\n      swap3\n      swap2\n      pop\n      pop\n      jump\t// out\n        /* \"#utility.yul\":7:84   */\n    tag_31:\n        /* \"#utility.yul\":44:51   */\n      0x00\n        /* \"#utility.yul\":73:78   */\n      dup2\n        /* \"#utility.yul\":62:78   */\n      swap1\n      pop\n        /* \"#utility.yul\":7:84   */\n      swap2\n      swap1\n      pop\n      jump\t// out\n        /* \"#utility.yul\":90:208   */\n    tag_32:\n        /* \"#utility.yul\":177:201   */\n      tag_42\n        /* \"#utility.yul\":195:200   */\n      dup2\n        /* \"#utility.yul\":177:201   */\n      tag_31\n      jump\t// in\n    tag_42:\n        /* \"#utility.yul\":172:175   */\n      dup3\n        /* \"#utility.yul\":165:202   */\n      mstore\n        /* \"#utility.yul\":90:208   */\n      pop\n      pop\n      jump\t// out\n        /* \"#utility.yul\":214:436   */\n    tag_11:\n        /* \"#utility.yul\":307:311   */\n      0x00\n        /* \"#utility.yul\":345:347   */\n      0x20\n        /* \"#utility.yul\":334:343   */\n      dup3\n        /* \"#utility.yul\":330:348   */\n      add\n        /* \"#utility.yul\":322:348   */\n      swap1\n      pop\n        /* \"#utility.yul\":358:429   */\n      tag_44\n        /* \"#utility.yul\":426:427   */\n      0x00\n        /* \"#utility.yul\":415:424   */\n      dup4\n        /* \"#utility.yul\":411:428   */\n      add\n        /* \"#utility.yul\":402:408   */\n      dup5\n        /* \"#utility.yul\":358:429   */\n      tag_32\n      jump\t// in\n    tag_44:\n        /* \"#utility.yul\":214:436   */\n      swap3\n      swap2\n      pop\n      pop\n      jump\t// out\n        /* \"#utility.yul\":523:640   */\n    tag_34:\n        /* \"#utility.yul\":632:633   */\n      0x00\n        /* \"#utility.yul\":629:630   */\n      dup1\n        /* \"#utility.yul\":622:634   */\n      revert\n        /* \"#utility.yul\":769:891   */\n    tag_36:\n        /* \"#utility.yul\":842:866   */\n      tag_49\n        /* \"#utility.yul\":860:865   */\n      dup2\n        /* \"#utility.yul\":842:866   */\n      tag_31\n      jump\t// in\n    tag_49:\n        /* \"#utility.yul\":835:840   */\n      dup2\n        /* \"#utility.yul\":832:867   */\n      eq\n        /* \"#utility.yul\":822:885   */\n      tag_50\n      jumpi\n        /* \"#utility.yul\":881:882   */\n      0x00\n        /* \"#utility.yul\":878:879   */\n      dup1\n        /* \"#utility.yul\":871:883   */\n      revert\n        /* \"#utility.yul\":822:885   */\n    tag_50:\n        /* \"#utility.yul\":769:891   */\n      pop\n      jump\t// out\n        /* \"#utility.yul\":897:1036   */\n    tag_37:\n        /* \"#utility.yul\":943:948   */\n      0x00\n        /* \"#utility.yul\":981:987   */\n      dup2\n        /* \"#utility.yul\":968:988   */\n      calldataload\n        /* \"#utility.yul\":959:988   */\n      swap1\n      pop\n        /* \"#utility.yul\":997:1030   */\n      tag_52\n        /* \"#utility.yul\":1024:1029   */\n      dup2\n        /* \"#utility.yul\":997:1030   */\n      tag_36\n      jump\t// in\n    tag_52:\n        /* \"#utility.yul\":897:1036   */\n      swap3\n      swap2\n      pop\n      pop\n      jump\t// out\n        /* \"#utility.yul\":1042:1516   */\n    tag_20:\n        /* \"#utility.yul\":1110:1116   */\n      0x00\n        /* \"#utility.yul\":1118:1124   */\n      dup1\n        /* \"#utility.yul\":1167:1169   */\n      0x40\n        /* \"#utility.yul\":1155:1164   */\n      dup4\n        /* \"#utility.yul\":1146:1153   */\n      dup6\n        /* \"#utility.yul\":1142:1165   */\n      sub\n        /* \"#utility.yul\":1138:1170   */\n      slt\n        /* \"#utility.yul\":1135:1254   */\n      iszero\n      tag_54\n      jumpi\n        /* \"#utility.yul\":1173:1252   */\n      tag_55\n      tag_34\n      jump\t// in\n    tag_55:\n        /* \"#utility.yul\":1135:1254   */\n    tag_54:\n        /* \"#utility.yul\":1293:1294   */\n      0x00\n        /* \"#utility.yul\":1318:1371   */\n      tag_56\n        /* \"#utility.yul\":1363:1370   */\n      dup6\n        /* \"#utility.yul\":1354:1360   */\n      dup3\n        /* \"#utility.yul\":1343:1352   */\n      dup7\n        /* \"#utility.yul\":1339:1361   */\n      add\n        /* \"#utility.yul\":1318:1371   */\n      tag_37\n      jump\t// in\n    tag_56:\n        /* \"#utility.yul\":1308:1371   */\n      swap3\n      pop\n        /* \"#utility.yul\":1264:1381   */\n      pop\n        /* \"#utility.yul\":1420:1422   */\n      0x20\n        /* \"#utility.yul\":1446:1499   */\n      tag_57\n        /* \"#utility.yul\":1491:1498   */\n      dup6\n        /* \"#utility.yul\":1482:1488   */\n      dup3\n        /* \"#utility.yul\":1471:1480   */\n      dup7\n        /* \"#utility.yul\":1467:1489   */\n      add\n        /* \"#utility.yul\":1446:1499   */\n      tag_37\n      jump\t// in\n    tag_57:\n        /* \"#utility.yul\":1436:1499   */\n      swap2\n      pop\n        /* \"#utility.yul\":1391:1509   */\n      pop\n        /* \"#utility.yul\":1042:1516   */\n      swap3\n      pop\n      swap3\n      swap1\n      pop\n      jump\t// out\n        /* \"#utility.yul\":1522:1702   */\n    tag_38:\n        /* \"#utility.yul\":1570:1647   */\n      0x4e487b7100000000000000000000000000000000000000000000000000000000\n        /* \"#utility.yul\":1567:1568   */\n      0x00\n        /* \"#utility.yul\":1560:1648   */\n      mstore\n        /* \"#utility.yul\":1667:1671   */\n      0x11\n        /* \"#utility.yul\":1664:1665   */\n      0x04\n        /* \"#utility.yul\":1657:1672   */\n      mstore\n        /* \"#utility.yul\":1691:1695   */\n      0x24\n        /* \"#utility.yul\":1688:1689   */\n      0x00\n        /* \"#utility.yul\":1681:1696   */\n      revert\n        /* \"#utility.yul\":1708:1899   */\n    tag_30:\n        /* \"#utility.yul\":1748:1751   */\n      0x00\n        /* \"#utility.yul\":1767:1787   */\n      tag_60\n        /* \"#utility.yul\":1785:1786   */\n      dup3\n        /* \"#utility.yul\":1767:1787   */\n      tag_31\n      jump\t// in\n    tag_60:\n        /* \"#utility.yul\":1762:1787   */\n      swap2\n      pop\n        /* \"#utility.yul\":1801:1821   */\n      tag_61\n        /* \"#utility.yul\":1819:1820   */\n      dup4\n        /* \"#utility.yul\":1801:1821   */\n      tag_31\n      jump\t// in\n    tag_61:\n        /* \"#utility.yul\":1796:1821   */\n      swap3\n      pop\n        /* \"#utility.yul\":1844:1845   */\n      dup3\n        /* \"#utility.yul\":1841:1842   */\n      dup3\n        /* \"#utility.yul\":1837:1846   */\n      add\n        /* \"#utility.yul\":1830:1846   */\n      swap1\n      pop\n        /* \"#utility.yul\":1865:1868   */\n      dup1\n        /* \"#utility.yul\":1862:1863   */\n      dup3\n        /* \"#utility.yul\":1859:1869   */\n      gt\n        /* \"#utility.yul\":1856:1892   */\n      iszero\n      tag_62\n      jumpi\n        /* \"#utility.yul\":1872:1890   */\n      tag_63\n      tag_38\n      jump\t// in\n    tag_63:\n        /* \"#utility.yul\":1856:1892   */\n    tag_62:\n        /* \"#utility.yul\":1708:1899   */\n      swap3\n      swap2\n      pop\n      pop\n      jump\t// out\n\n    auxdata: 0xa264697066735822122031730234facf001c55550d4979fbb0d30f54b318383d259802b476881f85331864736f6c63430008140033\n}\n",
				"bytecode": {
					"linkReferences": {},
					"object": "608060405234801561000f575f80fd5b506102718061001d5f395ff3fe608060405234801561000f575f80fd5b5060043610610055575f3560e01c80633fa4f245146100595780638a054ac214610077578063c3da42b814610095578063d5e26772146100b3578063f104a3f8146100cf575b5f80fd5b6100616100ff565b60405161006e9190610156565b60405180910390f35b61007f610104565b60405161008c9190610156565b60405180910390f35b61009d61010a565b6040516100aa9190610156565b60405180910390f35b6100cd60048036038101906100c8919061019d565b610110565b005b6100e960048036038101906100e4919061019d565b610124565b6040516100f69190610156565b60405180910390f35b5f5481565b60025481565b60015481565b61011a8282610124565b6001819055505050565b5f8082846101329190610208565b90508091505092915050565b5f819050919050565b6101508161013e565b82525050565b5f6020820190506101695f830184610147565b92915050565b5f80fd5b61017c8161013e565b8114610186575f80fd5b50565b5f8135905061019781610173565b92915050565b5f80604083850312156101b3576101b261016f565b5b5f6101c085828601610189565b92505060206101d185828601610189565b9150509250929050565b7f4e487b71000000000000000000000000000000000000000000000000000000005f52601160045260245ffd5b5f6102128261013e565b915061021d8361013e565b9250828201905080821115610235576102346101db565b5b9291505056fea264697066735822122031730234facf001c55550d4979fbb0d30f54b318383d259802b476881f85331864736f6c63430008140033",
					"opcodes": "PUSH1 0x80 PUSH1 0x40 MSTORE CALLVALUE DUP1 ISZERO PUSH2 0xF JUMPI PUSH0 DUP1 REVERT JUMPDEST POP PUSH2 0x271 DUP1 PUSH2 0x1D PUSH0 CODECOPY PUSH0 RETURN INVALID PUSH1 0x80 PUSH1 0x40 MSTORE CALLVALUE DUP1 ISZERO PUSH2 0xF JUMPI PUSH0 DUP1 REVERT JUMPDEST POP PUSH1 0x4 CALLDATASIZE LT PUSH2 0x55 JUMPI PUSH0 CALLDATALOAD PUSH1 0xE0 SHR DUP1 PUSH4 0x3FA4F245 EQ PUSH2 0x59 JUMPI DUP1 PUSH4 0x8A054AC2 EQ PUSH2 0x77 JUMPI DUP1 PUSH4 0xC3DA42B8 EQ PUSH2 0x95 JUMPI DUP1 PUSH4 0xD5E26772 EQ PUSH2 0xB3 JUMPI DUP1 PUSH4 0xF104A3F8 EQ PUSH2 0xCF JUMPI JUMPDEST PUSH0 DUP1 REVERT JUMPDEST PUSH2 0x61 PUSH2 0xFF JUMP JUMPDEST PUSH1 0x40 MLOAD PUSH2 0x6E SWAP2 SWAP1 PUSH2 0x156 JUMP JUMPDEST PUSH1 0x40 MLOAD DUP1 SWAP2 SUB SWAP1 RETURN JUMPDEST PUSH2 0x7F PUSH2 0x104 JUMP JUMPDEST PUSH1 0x40 MLOAD PUSH2 0x8C SWAP2 SWAP1 PUSH2 0x156 JUMP JUMPDEST PUSH1 0x40 MLOAD DUP1 SWAP2 SUB SWAP1 RETURN JUMPDEST PUSH2 0x9D PUSH2 0x10A JUMP JUMPDEST PUSH1 0x40 MLOAD PUSH2 0xAA SWAP2 SWAP1 PUSH2 0x156 JUMP JUMPDEST PUSH1 0x40 MLOAD DUP1 SWAP2 SUB SWAP1 RETURN JUMPDEST PUSH2 0xCD PUSH1 0x4 DUP1 CALLDATASIZE SUB DUP2 ADD SWAP1 PUSH2 0xC8 SWAP2 SWAP1 PUSH2 0x19D JUMP JUMPDEST PUSH2 0x110 JUMP JUMPDEST STOP JUMPDEST PUSH2 0xE9 PUSH1 0x4 DUP1 CALLDATASIZE SUB DUP2 ADD SWAP1 PUSH2 0xE4 SWAP2 SWAP1 PUSH2 0x19D JUMP JUMPDEST PUSH2 0x124 JUMP JUMPDEST PUSH1 0x40 MLOAD PUSH2 0xF6 SWAP2 SWAP1 PUSH2 0x156 JUMP JUMPDEST PUSH1 0x40 MLOAD DUP1 SWAP2 SUB SWAP1 RETURN JUMPDEST PUSH0 SLOAD DUP2 JUMP JUMPDEST PUSH1 0x2 SLOAD DUP2 JUMP JUMPDEST PUSH1 0x1 SLOAD DUP2 JUMP JUMPDEST PUSH2 0x11A DUP3 DUP3 PUSH2 0x124 JUMP JUMPDEST PUSH1 0x1 DUP2 SWAP1 SSTORE POP POP POP JUMP JUMPDEST PUSH0 DUP1 DUP3 DUP5 PUSH2 0x132 SWAP2 SWAP1 PUSH2 0x208 JUMP JUMPDEST SWAP1 POP DUP1 SWAP2 POP POP SWAP3 SWAP2 POP POP JUMP JUMPDEST PUSH0 DUP2 SWAP1 POP SWAP2 SWAP1 POP JUMP JUMPDEST PUSH2 0x150 DUP2 PUSH2 0x13E JUMP JUMPDEST DUP3 MSTORE POP POP JUMP JUMPDEST PUSH0 PUSH1 0x20 DUP3 ADD SWAP1 POP PUSH2 0x169 PUSH0 DUP4 ADD DUP5 PUSH2 0x147 JUMP JUMPDEST SWAP3 SWAP2 POP POP JUMP JUMPDEST PUSH0 DUP1 REVERT JUMPDEST PUSH2 0x17C DUP2 PUSH2 0x13E JUMP JUMPDEST DUP2 EQ PUSH2 0x186 JUMPI PUSH0 DUP1 REVERT JUMPDEST POP JUMP JUMPDEST PUSH0 DUP2 CALLDATALOAD SWAP1 POP PUSH2 0x197 DUP2 PUSH2 0x173 JUMP JUMPDEST SWAP3 SWAP2 POP POP JUMP JUMPDEST PUSH0 DUP1 PUSH1 0x40 DUP4 DUP6 SUB SLT ISZERO PUSH2 0x1B3 JUMPI PUSH2 0x1B2 PUSH2 0x16F JUMP JUMPDEST JUMPDEST PUSH0 PUSH2 0x1C0 DUP6 DUP3 DUP7 ADD PUSH2 0x189 JUMP JUMPDEST SWAP3 POP POP PUSH1 0x20 PUSH2 0x1D1 DUP6 DUP3 DUP7 ADD PUSH2 0x189 JUMP JUMPDEST SWAP2 POP POP SWAP3 POP SWAP3 SWAP1 POP JUMP JUMPDEST PUSH32 0x4E487B7100000000000000000000000000000000000000000000000000000000 PUSH0 MSTORE PUSH1 0x11 PUSH1 0x4 MSTORE PUSH1 0x24 PUSH0 REVERT JUMPDEST PUSH0 PUSH2 0x212 DUP3 PUSH2 0x13E JUMP JUMPDEST SWAP2 POP PUSH2 0x21D DUP4 PUSH2 0x13E JUMP JUMPDEST SWAP3 POP DUP3 DUP3 ADD SWAP1 POP DUP1 DUP3 GT ISZERO PUSH2 0x235 JUMPI PUSH2 0x234 PUSH2 0x1DB JUMP JUMPDEST JUMPDEST SWAP3 SWAP2 POP POP JUMP INVALID LOG2 PUSH5 0x6970667358 0x22 SLT KECCAK256 BALANCE PUSH20 0x234FACF001C55550D4979FBB0D30F54B318383D 0x25 SWAP9 MUL 0xB4 PUSH23 0x881F85331864736F6C6343000814003300000000000000 "
				},
				"gasEstimates": {
					"creation": {
						"codeDepositCost": "125000",
						"executionCost": "169",
						"totalCost": "125169"
					},
					"external": {
						"c()": "2447",
						"calculate1(uint256,uint256)": "infinite",
						"calculate2(uint256,uint256)": "infinite",
						"d()": "2425",
						"value()": "2402"
					}
				},
				"methodIdentifiers": {
					"c()": "c3da42b8",
					"calculate1(uint256,uint256)": "d5e26772",
					"calculate2(uint256,uint256)": "f104a3f8",
					"d()": "8a054ac2",
					"value()": "3fa4f245"
				}
			},
			"storageLayout": {
				"storage": [
					{
						"astId": 3,
						"contract": "code/1_view.sol:ExampleContract",
						"label": "value",
						"offset": 0,
						"slot": "0",
						"type": "t_uint256"
					},
					{
						"astId": 5,
						"contract": "code/1_view.sol:ExampleContract",
						"label": "c",
						"offset": 0,
						"slot": "1",
						"type": "t_uint256"
					},
					{
						"astId": 7,
						"contract": "code/1_view.sol:ExampleContract",
						"label": "d",
						"offset": 0,
						"slot": "2",
						"type": "t_uint256"
					}
				],
				"types": {
					"t_uint256": {
						"encoding": "inplace",
						"label": "uint256",
						"numberOfBytes": "32"
					}
				}
			},
			"userdoc": {
				"kind": "user",
				"methods": {},
				"version": 1
			}
		}
	}
}