{
	"test.sol": {
		"exam": {
			"abi": [
				{
					"inputs": [],
					"name": "funExt",
					"outputs": [
						{
							"internalType": "uint256",
							"name": "",
							"type": "uint256"
						}
					],
					"stateMutability": "pure",
					"type": "function"
				},
				{
					"inputs": [],
					"name": "var1",
					"outputs": [
						{
							"internalType": "uint256",
							"name": "",
							"type": "uint256"
						}
					],
					"stateMutability": "view",
					"type": "function"
				}
			],
			"devdoc": {
				"kind": "dev",
				"methods": {},
				"version": 1
			},
			"evm": {
				"assembly": "    /* \"test.sol\":67:340  contract exam{... */\n  mstore(0x40, 0x80)\n    /* \"test.sol\":105:106  1 */\n  0x01\n    /* \"test.sol\":86:106  uint public var1 = 1 */\n  0x00\n  sstore\n    /* \"test.sol\":124:125  2 */\n  0x02\n    /* \"test.sol\":112:125  uint var2 = 2 */\n  0x01\n  sstore\n    /* \"test.sol\":152:153  3 */\n  0x03\n    /* \"test.sol\":131:153  uint internal var3 = 3 */\n  0x02\n  sstore\n    /* \"test.sol\":67:340  contract exam{... */\n  callvalue\n  dup1\n  iszero\n  tag_1\n  jumpi\n  0x00\n  dup1\n  revert\ntag_1:\n  pop\n  dataSize(sub_0)\n  dup1\n  dataOffset(sub_0)\n  0x00\n  codecopy\n  0x00\n  return\nstop\n\nsub_0: assembly {\n        /* \"test.sol\":67:340  contract exam{... */\n      mstore(0x40, 0x80)\n      callvalue\n      dup1\n      iszero\n      tag_1\n      jumpi\n      0x00\n      dup1\n      revert\n    tag_1:\n      pop\n      jumpi(tag_2, lt(calldatasize, 0x04))\n      shr(0xe0, calldataload(0x00))\n      dup1\n      0x67e919b6\n      eq\n      tag_3\n      jumpi\n      dup1\n      0xbfc3ef44\n      eq\n      tag_4\n      jumpi\n    tag_2:\n      0x00\n      dup1\n      revert\n        /* \"test.sol\":86:106  uint public var1 = 1 */\n    tag_3:\n      tag_5\n      tag_6\n      jump\t// in\n    tag_5:\n      mload(0x40)\n      tag_7\n      swap2\n      swap1\n      tag_8\n      jump\t// in\n    tag_7:\n      mload(0x40)\n      dup1\n      swap2\n      sub\n      swap1\n      return\n        /* \"test.sol\":160:230  function funExt() external pure returns(uint){... */\n    tag_4:\n      tag_9\n      tag_10\n      jump\t// in\n    tag_9:\n      mload(0x40)\n      tag_11\n      swap2\n      swap1\n      tag_8\n      jump\t// in\n    tag_11:\n      mload(0x40)\n      dup1\n      swap2\n      sub\n      swap1\n      return\n        /* \"test.sol\":86:106  uint public var1 = 1 */\n    tag_6:\n      sload(0x00)\n      dup2\n      jump\t// out\n        /* \"test.sol\":160:230  function funExt() external pure returns(uint){... */\n    tag_10:\n        /* \"test.sol\":200:204  uint */\n      0x00\n        /* \"test.sol\":222:223  2 */\n      0x02\n        /* \"test.sol\":215:223  return 2 */\n      swap1\n      pop\n        /* \"test.sol\":160:230  function funExt() external pure returns(uint){... */\n      swap1\n      jump\t// out\n        /* \"#utility.yul\":7:84   */\n    tag_13:\n        /* \"#utility.yul\":44:51   */\n      0x00\n        /* \"#utility.yul\":73:78   */\n      dup2\n        /* \"#utility.yul\":62:78   */\n      swap1\n      pop\n        /* \"#utility.yul\":7:84   */\n      swap2\n      swap1\n      pop\n      jump\t// out\n        /* \"#utility.yul\":90:208   */\n    tag_14:\n        /* \"#utility.yul\":177:201   */\n      tag_18\n        /* \"#utility.yul\":195:200   */\n      dup2\n        /* \"#utility.yul\":177:201   */\n      tag_13\n      jump\t// in\n    tag_18:\n        /* \"#utility.yul\":172:175   */\n      dup3\n        /* \"#utility.yul\":165:202   */\n      mstore\n        /* \"#utility.yul\":90:208   */\n      pop\n      pop\n      jump\t// out\n        /* \"#utility.yul\":214:436   */\n    tag_8:\n        /* \"#utility.yul\":307:311   */\n      0x00\n        /* \"#utility.yul\":345:347   */\n      0x20\n        /* \"#utility.yul\":334:343   */\n      dup3\n        /* \"#utility.yul\":330:348   */\n      add\n        /* \"#utility.yul\":322:348   */\n      swap1\n      pop\n        /* \"#utility.yul\":358:429   */\n      tag_20\n        /* \"#utility.yul\":426:427   */\n      0x00\n        /* \"#utility.yul\":415:424   */\n      dup4\n        /* \"#utility.yul\":411:428   */\n      add\n        /* \"#utility.yul\":402:408   */\n      dup5\n        /* \"#utility.yul\":358:429   */\n      tag_14\n      jump\t// in\n    tag_20:\n        /* \"#utility.yul\":214:436   */\n      swap3\n      swap2\n      pop\n      pop\n      jump\t// out\n\n    auxdata: 0xa2646970667358221220c0e94f4465e688ae98c20bd3a3cfcb76e30e19e71b0b03af31d5b2ca29c835bc64736f6c63430008140033\n}\n",
				"bytecode": {
					"linkReferences": {},
					"object": "608060405260015f556002600155600360025534801561001d575f80fd5b5060d88061002a5f395ff3fe6080604052348015600e575f80fd5b50600436106030575f3560e01c806367e919b6146034578063bfc3ef4414604e575b5f80fd5b603a6068565b60405160459190608b565b60405180910390f35b6054606d565b604051605f9190608b565b60405180910390f35b5f5481565b5f6002905090565b5f819050919050565b6085816075565b82525050565b5f602082019050609c5f830184607e565b9291505056fea2646970667358221220c0e94f4465e688ae98c20bd3a3cfcb76e30e19e71b0b03af31d5b2ca29c835bc64736f6c63430008140033",
					"opcodes": "PUSH1 0x80 PUSH1 0x40 MSTORE PUSH1 0x1 PUSH0 SSTORE PUSH1 0x2 PUSH1 0x1 SSTORE PUSH1 0x3 PUSH1 0x2 SSTORE CALLVALUE DUP1 ISZERO PUSH2 0x1D JUMPI PUSH0 DUP1 REVERT JUMPDEST POP PUSH1 0xD8 DUP1 PUSH2 0x2A PUSH0 CODECOPY PUSH0 RETURN INVALID PUSH1 0x80 PUSH1 0x40 MSTORE CALLVALUE DUP1 ISZERO PUSH1 0xE JUMPI PUSH0 DUP1 REVERT JUMPDEST POP PUSH1 0x4 CALLDATASIZE LT PUSH1 0x30 JUMPI PUSH0 CALLDATALOAD PUSH1 0xE0 SHR DUP1 PUSH4 0x67E919B6 EQ PUSH1 0x34 JUMPI DUP1 PUSH4 0xBFC3EF44 EQ PUSH1 0x4E JUMPI JUMPDEST PUSH0 DUP1 REVERT JUMPDEST PUSH1 0x3A PUSH1 0x68 JUMP JUMPDEST PUSH1 0x40 MLOAD PUSH1 0x45 SWAP2 SWAP1 PUSH1 0x8B JUMP JUMPDEST PUSH1 0x40 MLOAD DUP1 SWAP2 SUB SWAP1 RETURN JUMPDEST PUSH1 0x54 PUSH1 0x6D JUMP JUMPDEST PUSH1 0x40 MLOAD PUSH1 0x5F SWAP2 SWAP1 PUSH1 0x8B JUMP JUMPDEST PUSH1 0x40 MLOAD DUP1 SWAP2 SUB SWAP1 RETURN JUMPDEST PUSH0 SLOAD DUP2 JUMP JUMPDEST PUSH0 PUSH1 0x2 SWAP1 POP SWAP1 JUMP JUMPDEST PUSH0 DUP2 SWAP1 POP SWAP2 SWAP1 POP JUMP JUMPDEST PUSH1 0x85 DUP2 PUSH1 0x75 JUMP JUMPDEST DUP3 MSTORE POP POP JUMP JUMPDEST PUSH0 PUSH1 0x20 DUP3 ADD SWAP1 POP PUSH1 0x9C PUSH0 DUP4 ADD DUP5 PUSH1 0x7E JUMP JUMPDEST SWAP3 SWAP2 POP POP JUMP INVALID LOG2 PUSH5 0x6970667358 0x22 SLT KECCAK256 0xC0 0xE9 0x4F PREVRANDAO PUSH6 0xE688AE98C20B 0xD3 LOG3 0xCF 0xCB PUSH23 0xE30E19E71B0B03AF31D5B2CA29C835BC64736F6C634300 ADDMOD EQ STOP CALLER "
				},
				"gasEstimates": {
					"creation": {
						"codeDepositCost": "43200",
						"executionCost": "66408",
						"totalCost": "109608"
					},
					"external": {
						"funExt()": "332",
						"var1()": "2402"
					},
					"internal": {
						"fun_public()": "infinite"
					}
				},
				"methodIdentifiers": {
					"funExt()": "bfc3ef44",
					"var1()": "67e919b6"
				}
			},
			"storageLayout": {
				"storage": [
					{
						"astId": 4,
						"contract": "test.sol:exam",
						"label": "var1",
						"offset": 0,
						"slot": "0",
						"type": "t_uint256"
					},
					{
						"astId": 7,
						"contract": "test.sol:exam",
						"label": "var2",
						"offset": 0,
						"slot": "1",
						"type": "t_uint256"
					},
					{
						"astId": 10,
						"contract": "test.sol:exam",
						"label": "var3",
						"offset": 0,
						"slot": "2",
						"type": "t_uint256"
					}
				],
				"types": {
					"t_uint256": {
						"encoding": "inplace",
						"label": "uint256",
						"numberOfBytes": "32"
					}
				}
			},
			"userdoc": {
				"kind": "user",
				"methods": {},
				"version": 1
			}
		}
	}
}